{
  "_format": "hh-sol-artifact-1",
  "contractName": "FarmSupplyChain",
  "sourceName": "contracts/Agritrust.sol",
  "abi": [
    {
      "inputs": [],
      "stateMutability": "nonpayable",
      "type": "constructor"
    },
    {
      "anonymous": false,
      "inputs": [
        {
          "indexed": true,
          "internalType": "uint256",
          "name": "cid",
          "type": "uint256"
        },
        {
          "indexed": true,
          "internalType": "address",
          "name": "contributor",
          "type": "address"
        },
        {
          "indexed": false,
          "internalType": "uint256",
          "name": "amount",
          "type": "uint256"
        }
      ],
      "name": "CrowdfundingContribution",
      "type": "event"
    },
    {
      "anonymous": false,
      "inputs": [
        {
          "indexed": true,
          "internalType": "uint256",
          "name": "cid",
          "type": "uint256"
        },
        {
          "indexed": true,
          "internalType": "address",
          "name": "farmer",
          "type": "address"
        },
        {
          "indexed": false,
          "internalType": "uint256",
          "name": "goal",
          "type": "uint256"
        }
      ],
      "name": "CrowdfundingStarted",
      "type": "event"
    },
    {
      "anonymous": false,
      "inputs": [
        {
          "indexed": false,
          "internalType": "uint256",
          "name": "newRate",
          "type": "uint256"
        }
      ],
      "name": "EthToFcfaRateUpdated",
      "type": "event"
    },
    {
      "anonymous": false,
      "inputs": [
        {
          "indexed": true,
          "internalType": "uint256",
          "name": "pid",
          "type": "uint256"
        },
        {
          "indexed": true,
          "internalType": "address",
          "name": "farmer",
          "type": "address"
        },
        {
          "indexed": false,
          "internalType": "string",
          "name": "name",
          "type": "string"
        },
        {
          "indexed": false,
          "internalType": "uint256",
          "name": "price",
          "type": "uint256"
        }
      ],
      "name": "ProductListed",
      "type": "event"
    },
    {
      "anonymous": false,
      "inputs": [
        {
          "indexed": true,
          "internalType": "uint256",
          "name": "pid",
          "type": "uint256"
        },
        {
          "indexed": true,
          "internalType": "address",
          "name": "seller",
          "type": "address"
        },
        {
          "indexed": true,
          "internalType": "address",
          "name": "buyer",
          "type": "address"
        },
        {
          "indexed": false,
          "internalType": "uint256",
          "name": "amount",
          "type": "uint256"
        }
      ],
      "name": "ProductSold",
      "type": "event"
    },
    {
      "anonymous": false,
      "inputs": [
        {
          "indexed": true,
          "internalType": "uint256",
          "name": "pid",
          "type": "uint256"
        },
        {
          "indexed": false,
          "internalType": "string",
          "name": "status",
          "type": "string"
        },
        {
          "indexed": false,
          "internalType": "string",
          "name": "verificationStage",
          "type": "string"
        },
        {
          "indexed": false,
          "internalType": "string",
          "name": "verificationStatus",
          "type": "string"
        }
      ],
      "name": "ProductStatusUpdate",
      "type": "event"
    },
    {
      "anonymous": false,
      "inputs": [
        {
          "indexed": true,
          "internalType": "uint256",
          "name": "pid",
          "type": "uint256"
        },
        {
          "indexed": false,
          "internalType": "enum FarmSupplyChain.VerificationStage",
          "name": "stage",
          "type": "uint8"
        },
        {
          "indexed": true,
          "internalType": "address",
          "name": "verifier",
          "type": "address"
        }
      ],
      "name": "ProductVerified",
      "type": "event"
    },
    {
      "anonymous": false,
      "inputs": [
        {
          "indexed": true,
          "internalType": "address",
          "name": "verifier",
          "type": "address"
        }
      ],
      "name": "VerifierAdded",
      "type": "event"
    },
    {
      "anonymous": false,
      "inputs": [
        {
          "indexed": true,
          "internalType": "address",
          "name": "verifier",
          "type": "address"
        }
      ],
      "name": "VerifierRemoved",
      "type": "event"
    },
    {
      "anonymous": false,
      "inputs": [
        {
          "indexed": true,
          "internalType": "address",
          "name": "from",
          "type": "address"
        },
        {
          "indexed": false,
          "internalType": "uint256",
          "name": "value",
          "type": "uint256"
        }
      ],
      "name": "balance",
      "type": "event"
    },
    {
      "inputs": [
        {
          "internalType": "address",
          "name": "_verifier",
          "type": "address"
        }
      ],
      "name": "addVerifier",
      "outputs": [],
      "stateMutability": "nonpayable",
      "type": "function"
    },
    {
      "inputs": [
        {
          "internalType": "uint256",
          "name": "",
          "type": "uint256"
        }
      ],
      "name": "campaigns",
      "outputs": [
        {
          "internalType": "uint256",
          "name": "cid",
          "type": "uint256"
        },
        {
          "internalType": "string",
          "name": "description",
          "type": "string"
        },
        {
          "internalType": "address",
          "name": "farmer",
          "type": "address"
        },
        {
          "internalType": "uint256",
          "name": "goal",
          "type": "uint256"
        },
        {
          "internalType": "uint256",
          "name": "deadline",
          "type": "uint256"
        },
        {
          "internalType": "uint256",
          "name": "raisedAmount",
          "type": "uint256"
        },
        {
          "internalType": "bool",
          "name": "active",
          "type": "bool"
        },
        {
          "internalType": "enum FarmSupplyChain.TransactionType",
          "name": "transaction_type",
          "type": "uint8"
        }
      ],
      "stateMutability": "view",
      "type": "function"
    },
    {
      "inputs": [
        {
          "internalType": "uint256",
          "name": "_cid",
          "type": "uint256"
        }
      ],
      "name": "contributeToCampaign",
      "outputs": [],
      "stateMutability": "payable",
      "type": "function"
    },
    {
      "inputs": [],
      "name": "ethToFcfaRate",
      "outputs": [
        {
          "internalType": "uint256",
          "name": "",
          "type": "uint256"
        }
      ],
      "stateMutability": "view",
      "type": "function"
    },
    {
      "inputs": [
        {
          "internalType": "uint256",
          "name": "_fcfaAmount",
          "type": "uint256"
        }
      ],
      "name": "fcfaToWei",
      "outputs": [
        {
          "internalType": "uint256",
          "name": "",
          "type": "uint256"
        }
      ],
      "stateMutability": "view",
      "type": "function"
    },
    {
      "inputs": [
        {
          "internalType": "uint256",
          "name": "_cid",
          "type": "uint256"
        },
        {
          "internalType": "address",
          "name": "_contributor",
          "type": "address"
        }
      ],
      "name": "getCampaignContribution",
      "outputs": [
        {
          "internalType": "uint256",
          "name": "",
          "type": "uint256"
        }
      ],
      "stateMutability": "view",
      "type": "function"
    },
    {
      "inputs": [
        {
          "internalType": "uint256",
          "name": "_cid",
          "type": "uint256"
        }
      ],
      "name": "getCampaignSupporters",
      "outputs": [
        {
          "internalType": "address[]",
          "name": "",
          "type": "address[]"
        }
      ],
      "stateMutability": "view",
      "type": "function"
    },
    {
      "inputs": [
        {
          "internalType": "address",
          "name": "_farmer",
          "type": "address"
        }
      ],
      "name": "getFarmerTransactions",
      "outputs": [
        {
          "components": [
            {
              "internalType": "uint256",
              "name": "tid",
              "type": "uint256"
            },
            {
              "internalType": "uint256",
              "name": "pid",
              "type": "uint256"
            },
            {
              "internalType": "address",
              "name": "from",
              "type": "address"
            },
            {
              "internalType": "address",
              "name": "to",
              "type": "address"
            },
            {
              "internalType": "uint256",
              "name": "amount",
              "type": "uint256"
            },
            {
              "internalType": "uint256",
              "name": "timestamp",
              "type": "uint256"
            },
            {
              "internalType": "enum FarmSupplyChain.TransactionType",
              "name": "transaction_type",
              "type": "uint8"
            }
          ],
          "internalType": "struct FarmSupplyChain.Transactions[]",
          "name": "",
          "type": "tuple[]"
        }
      ],
      "stateMutability": "view",
      "type": "function"
    },
    {
      "inputs": [
        {
          "internalType": "uint256",
          "name": "_pid",
          "type": "uint256"
        }
      ],
      "name": "getProduct",
      "outputs": [
        {
          "components": [
            {
              "internalType": "string",
              "name": "name",
              "type": "string"
            },
            {
              "internalType": "uint256",
              "name": "pid",
              "type": "uint256"
            },
            {
              "internalType": "uint256",
              "name": "qty",
              "type": "uint256"
            },
            {
              "internalType": "address",
              "name": "farmer",
              "type": "address"
            },
            {
              "internalType": "string",
              "name": "description",
              "type": "string"
            },
            {
              "internalType": "uint256",
              "name": "price",
              "type": "uint256"
            },
            {
              "internalType": "enum FarmSupplyChain.ProductStatus",
              "name": "status",
              "type": "uint8"
            },
            {
              "internalType": "string[]",
              "name": "farmingInputs",
              "type": "string[]"
            },
            {
              "internalType": "uint256",
              "name": "timestamp",
              "type": "uint256"
            },
            {
              "internalType": "bool",
              "name": "isListed",
              "type": "bool"
            }
          ],
          "internalType": "struct FarmSupplyChain.Products",
          "name": "",
          "type": "tuple"
        }
      ],
      "stateMutability": "view",
      "type": "function"
    },
    {
      "inputs": [
        {
          "internalType": "uint256",
          "name": "_pid",
          "type": "uint256"
        }
      ],
      "name": "getProductVerifications",
      "outputs": [
        {
          "components": [
            {
              "internalType": "uint256",
              "name": "pid",
              "type": "uint256"
            },
            {
              "internalType": "enum FarmSupplyChain.VerificationStage",
              "name": "stage",
              "type": "uint8"
            },
            {
              "internalType": "enum FarmSupplyChain.VerificationStatus",
              "name": "status",
              "type": "uint8"
            },
            {
              "internalType": "string",
              "name": "comments",
              "type": "string"
            },
            {
              "internalType": "address",
              "name": "verifier",
              "type": "address"
            },
            {
              "internalType": "uint256",
              "name": "timestamp",
              "type": "uint256"
            }
          ],
          "internalType": "struct FarmSupplyChain.Verification[]",
          "name": "",
          "type": "tuple[]"
        }
      ],
      "stateMutability": "view",
      "type": "function"
    },
    {
      "inputs": [
        {
          "internalType": "uint256",
          "name": "_pid",
          "type": "uint256"
        }
      ],
      "name": "isFullyVerified",
      "outputs": [
        {
          "internalType": "bool",
          "name": "",
          "type": "bool"
        }
      ],
      "stateMutability": "view",
      "type": "function"
    },
    {
      "inputs": [
        {
          "internalType": "string",
          "name": "_name",
          "type": "string"
        },
        {
          "internalType": "uint256",
          "name": "_qty",
          "type": "uint256"
        },
        {
          "internalType": "string",
          "name": "_description",
          "type": "string"
        },
        {
          "internalType": "uint256",
          "name": "_priceFcfa",
          "type": "uint256"
        },
        {
          "internalType": "string[]",
          "name": "_farmingInputs",
          "type": "string[]"
        }
      ],
      "name": "listProduct",
      "outputs": [
        {
          "internalType": "uint256",
          "name": "",
          "type": "uint256"
        }
      ],
      "stateMutability": "nonpayable",
      "type": "function"
    },
    {
      "inputs": [],
      "name": "owner",
      "outputs": [
        {
          "internalType": "address",
          "name": "",
          "type": "address"
        }
      ],
      "stateMutability": "view",
      "type": "function"
    },
    {
      "inputs": [
        {
          "internalType": "uint256",
          "name": "",
          "type": "uint256"
        },
        {
          "internalType": "uint256",
          "name": "",
          "type": "uint256"
        }
      ],
      "name": "productVerifications",
      "outputs": [
        {
          "internalType": "uint256",
          "name": "pid",
          "type": "uint256"
        },
        {
          "internalType": "enum FarmSupplyChain.VerificationStage",
          "name": "stage",
          "type": "uint8"
        },
        {
          "internalType": "enum FarmSupplyChain.VerificationStatus",
          "name": "status",
          "type": "uint8"
        },
        {
          "internalType": "string",
          "name": "comments",
          "type": "string"
        },
        {
          "internalType": "address",
          "name": "verifier",
          "type": "address"
        },
        {
          "internalType": "uint256",
          "name": "timestamp",
          "type": "uint256"
        }
      ],
      "stateMutability": "view",
      "type": "function"
    },
    {
      "inputs": [
        {
          "internalType": "uint256",
          "name": "",
          "type": "uint256"
        }
      ],
      "name": "products",
      "outputs": [
        {
          "internalType": "string",
          "name": "name",
          "type": "string"
        },
        {
          "internalType": "uint256",
          "name": "pid",
          "type": "uint256"
        },
        {
          "internalType": "uint256",
          "name": "qty",
          "type": "uint256"
        },
        {
          "internalType": "address",
          "name": "farmer",
          "type": "address"
        },
        {
          "internalType": "string",
          "name": "description",
          "type": "string"
        },
        {
          "internalType": "uint256",
          "name": "price",
          "type": "uint256"
        },
        {
          "internalType": "enum FarmSupplyChain.ProductStatus",
          "name": "status",
          "type": "uint8"
        },
        {
          "internalType": "uint256",
          "name": "timestamp",
          "type": "uint256"
        },
        {
          "internalType": "bool",
          "name": "isListed",
          "type": "bool"
        }
      ],
      "stateMutability": "view",
      "type": "function"
    },
    {
      "inputs": [
        {
          "internalType": "uint256",
          "name": "_pid",
          "type": "uint256"
        }
      ],
      "name": "purchaseProduct",
      "outputs": [],
      "stateMutability": "payable",
      "type": "function"
    },
    {
      "inputs": [
        {
          "internalType": "address",
          "name": "_verifier",
          "type": "address"
        }
      ],
      "name": "removeVerifier",
      "outputs": [],
      "stateMutability": "nonpayable",
      "type": "function"
    },
    {
      "inputs": [
        {
          "internalType": "string",
          "name": "_description",
          "type": "string"
        },
        {
          "internalType": "uint256",
          "name": "_goal",
          "type": "uint256"
        },
        {
          "internalType": "uint256",
          "name": "_durationInDays",
          "type": "uint256"
        }
      ],
      "name": "startCrowdfundingCampaign",
      "outputs": [
        {
          "internalType": "uint256",
          "name": "",
          "type": "uint256"
        }
      ],
      "stateMutability": "nonpayable",
      "type": "function"
    },
    {
      "inputs": [
        {
          "internalType": "address",
          "name": "",
          "type": "address"
        }
      ],
      "name": "supporters",
      "outputs": [
        {
          "internalType": "bool",
          "name": "",
          "type": "bool"
        }
      ],
      "stateMutability": "view",
      "type": "function"
    },
    {
      "inputs": [
        {
          "internalType": "uint256",
          "name": "_newRate",
          "type": "uint256"
        }
      ],
      "name": "updateEthToFcfaRate",
      "outputs": [],
      "stateMutability": "nonpayable",
      "type": "function"
    },
    {
      "inputs": [
        {
          "internalType": "address",
          "name": "",
          "type": "address"
        }
      ],
      "name": "verifiers",
      "outputs": [
        {
          "internalType": "bool",
          "name": "",
          "type": "bool"
        }
      ],
      "stateMutability": "view",
      "type": "function"
    },
    {
      "inputs": [
        {
          "internalType": "uint256",
          "name": "_pid",
          "type": "uint256"
        },
        {
          "internalType": "enum FarmSupplyChain.VerificationStage",
          "name": "_stage",
          "type": "uint8"
        },
        {
          "internalType": "enum FarmSupplyChain.VerificationStatus",
          "name": "_status",
          "type": "uint8"
        },
        {
          "internalType": "string",
          "name": "_comments",
          "type": "string"
        }
      ],
      "name": "verifyProducts",
      "outputs": [],
      "stateMutability": "nonpayable",
      "type": "function"
    },
    {
      "inputs": [
        {
          "internalType": "uint256",
          "name": "_weiAmount",
          "type": "uint256"
        }
      ],
      "name": "weiToFcfa",
      "outputs": [
        {
          "internalType": "uint256",
          "name": "",
          "type": "uint256"
        }
      ],
      "stateMutability": "view",
      "type": "function"
    },
    {
      "stateMutability": "payable",
      "type": "receive"
    }
  ],
  "bytecode": "0x6080604052348015600f57600080fd5b5060006006819055506000600781905550600060088190555033600960006101000a81548173ffffffffffffffffffffffffffffffffffffffff021916908373ffffffffffffffffffffffffffffffffffffffff160217905550623567e0600a81905550614bed806100826000396000f3fe6080604052600436106101445760003560e01c80637acc0b20116100b6578063b9db15b41161006f578063b9db15b4146105d3578063c0411ff414610610578063ca2dfd0a1461064d578063d48d7bcc14610676578063d8cb37ac1461069f578063ea3e5bcf146106ca57610229565b80637acc0b201461047e5780638da5cb5b146104c35780639000b3d6146104ee578063a1cda5ba14610517578063b4767d8914610554578063b8ccbaf11461059657610229565b806357f13b5d1161010857806357f13b5d146103105780635af804ca1461034d5780635cc8d9d61461038a578063647c75e2146103c75780636c82448714610404578063747c1bd71461044157610229565b80630b7ef89b1461022e578063141961bc1461024a578063315addb81461028e57806338e76a03146102b75780634abe816b146102d357610229565b3661022957600960009054906101000a900473ffffffffffffffffffffffffffffffffffffffff1673ffffffffffffffffffffffffffffffffffffffff163373ffffffffffffffffffffffffffffffffffffffff16146101d9576040517f08c379a00000000000000000000000000000000000000000000000000000000081526004016101d0906131ec565b60405180910390fd5b3373ffffffffffffffffffffffffffffffffffffffff167f6d8c859a41b8f0898d2297713b26c17d13827e444abae7c4c094189145a248a53460405161021f9190613225565b60405180910390a2005b600080fd5b61024860048036038101906102439190613280565b610707565b005b34801561025657600080fd5b50610271600480360381019061026c9190613280565b610c32565b6040516102859897969594939291906133ff565b60405180910390f35b34801561029a57600080fd5b506102b560048036038101906102b09190613280565b610d3c565b005b6102d160048036038101906102cc9190613280565b610e50565b005b3480156102df57600080fd5b506102fa60048036038101906102f59190613280565b611359565b60405161030791906136c7565b60405180910390f35b34801561031c57600080fd5b506103376004803603810190610332919061381e565b61153d565b6040516103449190613225565b60405180910390f35b34801561035957600080fd5b50610374600480360381019061036f9190613280565b611685565b6040516103819190613225565b60405180910390f35b34801561039657600080fd5b506103b160048036038101906103ac91906138b9565b6116af565b6040516103be9190613225565b60405180910390f35b3480156103d357600080fd5b506103ee60048036038101906103e991906138f9565b61170c565b6040516103fb9190613926565b60405180910390f35b34801561041057600080fd5b5061042b600480360381019061042691906138f9565b61172c565b6040516104389190613926565b60405180910390f35b34801561044d57600080fd5b5061046860048036038101906104639190613a27565b61174c565b6040516104759190613225565b60405180910390f35b34801561048a57600080fd5b506104a560048036038101906104a09190613280565b61196b565b6040516104ba99989796959493929190613b3e565b60405180910390f35b3480156104cf57600080fd5b506104d8611b03565b6040516104e59190613bd9565b60405180910390f35b3480156104fa57600080fd5b50610515600480360381019061051091906138f9565b611b29565b005b34801561052357600080fd5b5061053e60048036038101906105399190613280565b611ce4565b60405161054b9190613926565b60405180910390f35b34801561056057600080fd5b5061057b60048036038101906105769190613bf4565b6120e4565b60405161058d96959493929190613c52565b60405180910390f35b3480156105a257600080fd5b506105bd60048036038101906105b89190613280565b6121ff565b6040516105ca9190613225565b60405180910390f35b3480156105df57600080fd5b506105fa60048036038101906105f59190613280565b612229565b6040516106079190613e82565b60405180910390f35b34801561061c57600080fd5b50610637600480360381019061063291906138f9565b61258b565b6040516106449190613ff0565b60405180910390f35b34801561065957600080fd5b50610674600480360381019061066f91906138f9565b612738565b005b34801561068257600080fd5b5061069d6004803603810190610698919061405c565b6128f2565b005b3480156106ab57600080fd5b506106b4612f47565b6040516106c19190613225565b60405180910390f35b3480156106d657600080fd5b506106f160048036038101906106ec9190613280565b612f4d565b6040516106fe919061418e565b60405180910390f35b600080600083815260200190815260200160002090508060060160009054906101000a900460ff1661076e576040517f08c379a0000000000000000000000000000000000000000000000000000000008152600401610765906141fc565b60405180910390fd5b806004015442106107b4576040517f08c379a00000000000000000000000000000000000000000000000000000000081526004016107ab90614268565b60405180910390fd5b600034116107f7576040517f08c379a00000000000000000000000000000000000000000000000000000000081526004016107ee906142fa565b60405180910390fd5b60008160070160003373ffffffffffffffffffffffffffffffffffffffff1673ffffffffffffffffffffffffffffffffffffffff16815260200190815260200160002054036108a65780600801339080600181540180825580915050600190039060005260206000200160009091909190916101000a81548173ffffffffffffffffffffffffffffffffffffffff021916908373ffffffffffffffffffffffffffffffffffffffff1602179055505b348160070160003373ffffffffffffffffffffffffffffffffffffffff1673ffffffffffffffffffffffffffffffffffffffff16815260200190815260200160002060008282546108f79190614349565b92505081905550348160050160008282546109129190614349565b925050819055506008600081548092919061092c9061437d565b919050555060006040518060e001604052806008548152602001600081526020013373ffffffffffffffffffffffffffffffffffffffff1681526020018360020160009054906101000a900473ffffffffffffffffffffffffffffffffffffffff1673ffffffffffffffffffffffffffffffffffffffff1681526020013481526020014281526020016001808111156109c8576109c7613388565b5b8152509050600260008360020160009054906101000a900473ffffffffffffffffffffffffffffffffffffffff1673ffffffffffffffffffffffffffffffffffffffff1673ffffffffffffffffffffffffffffffffffffffff168152602001908152602001600020819080600181540180825580915050600190039060005260206000209060070201600090919091909150600082015181600001556020820151816001015560408201518160020160006101000a81548173ffffffffffffffffffffffffffffffffffffffff021916908373ffffffffffffffffffffffffffffffffffffffff16021790555060608201518160030160006101000a81548173ffffffffffffffffffffffffffffffffffffffff021916908373ffffffffffffffffffffffffffffffffffffffff1602179055506080820151816004015560a0820151816005015560c08201518160060160006101000a81548160ff02191690836001811115610b3b57610b3a613388565b5b021790555050503373ffffffffffffffffffffffffffffffffffffffff16837fcad6b6191651535d62239204c75c2eaed5102968edb40b152c95bbbf3d015dfd34604051610b899190613225565b60405180910390a38160030154826005015410610c2d5760008260060160006101000a81548160ff0219169083151502179055508160020160009054906101000a900473ffffffffffffffffffffffffffffffffffffffff1673ffffffffffffffffffffffffffffffffffffffff166108fc83600501549081150290604051600060405180830381858888f19350505050158015610c2b573d6000803e3d6000fd5b505b505050565b6000602052806000526040600020600091509050806000015490806001018054610c5b906143f4565b80601f0160208091040260200160405190810160405280929190818152602001828054610c87906143f4565b8015610cd45780601f10610ca957610100808354040283529160200191610cd4565b820191906000526020600020905b815481529060010190602001808311610cb757829003601f168201915b5050505050908060020160009054906101000a900473ffffffffffffffffffffffffffffffffffffffff16908060030154908060040154908060050154908060060160009054906101000a900460ff16908060060160019054906101000a900460ff16905088565b600960009054906101000a900473ffffffffffffffffffffffffffffffffffffffff1673ffffffffffffffffffffffffffffffffffffffff163373ffffffffffffffffffffffffffffffffffffffff1614610dcc576040517f08c379a0000000000000000000000000000000000000000000000000000000008152600401610dc3906131ec565b60405180910390fd5b60008111610e0f576040517f08c379a0000000000000000000000000000000000000000000000000000000008152600401610e0690614471565b60405180910390fd5b80600a819055507f25761774644d2181e44037f016343f44410b2eb3002c7c26c88a98ee415a9a1a81604051610e459190613225565b60405180910390a150565b60006003600083815260200190815260200160002090508060090160009054906101000a900460ff16610eb8576040517f08c379a0000000000000000000000000000000000000000000000000000000008152600401610eaf906144dd565b60405180910390fd5b60016002811115610ecc57610ecb613388565b5b8160060160009054906101000a900460ff166002811115610ef057610eef613388565b5b14610f30576040517f08c379a0000000000000000000000000000000000000000000000000000000008152600401610f2790614549565b60405180910390fd5b8060050154341015610f77576040517f08c379a0000000000000000000000000000000000000000000000000000000008152600401610f6e906145b5565b60405180910390fd5b3373ffffffffffffffffffffffffffffffffffffffff168160030160009054906101000a900473ffffffffffffffffffffffffffffffffffffffff1673ffffffffffffffffffffffffffffffffffffffff1603611009576040517f08c379a000000000000000000000000000000000000000000000000000000000815260040161100090614647565b60405180910390fd5b60028160060160006101000a81548160ff0219169083600281111561103157611030613388565b5b0217905550600860008154809291906110499061437d565b919050555060006040518060e0016040528060085481526020018481526020013373ffffffffffffffffffffffffffffffffffffffff1681526020018360030160009054906101000a900473ffffffffffffffffffffffffffffffffffffffff1673ffffffffffffffffffffffffffffffffffffffff168152602001348152602001428152602001600060018111156110e5576110e4613388565b5b8152509050600260008360030160009054906101000a900473ffffffffffffffffffffffffffffffffffffffff1673ffffffffffffffffffffffffffffffffffffffff1673ffffffffffffffffffffffffffffffffffffffff168152602001908152602001600020819080600181540180825580915050600190039060005260206000209060070201600090919091909150600082015181600001556020820151816001015560408201518160020160006101000a81548173ffffffffffffffffffffffffffffffffffffffff021916908373ffffffffffffffffffffffffffffffffffffffff16021790555060608201518160030160006101000a81548173ffffffffffffffffffffffffffffffffffffffff021916908373ffffffffffffffffffffffffffffffffffffffff1602179055506080820151816004015560a0820151816005015560c08201518160060160006101000a81548160ff0219169083600181111561125857611257613388565b5b021790555050508160030160009054906101000a900473ffffffffffffffffffffffffffffffffffffffff1673ffffffffffffffffffffffffffffffffffffffff166108fc349081150290604051600060405180830381858888f193505050501580156112c9573d6000803e3d6000fd5b503373ffffffffffffffffffffffffffffffffffffffff168260030160009054906101000a900473ffffffffffffffffffffffffffffffffffffffff1673ffffffffffffffffffffffffffffffffffffffff16847fa02e46fc9bbd3e1138787bc1dc117ae0b9a5a3745ea30b0ab673d79d907390293460405161134c9190613225565b60405180910390a4505050565b606060046000838152602001908152602001600020805480602002602001604051908101604052809291908181526020016000905b8282101561153257838290600052602060002090600502016040518060c0016040529081600082015481526020016001820160009054906101000a900460ff1660028111156113e0576113df613388565b5b60028111156113f2576113f1613388565b5b81526020016001820160019054906101000a900460ff16600281111561141b5761141a613388565b5b600281111561142d5761142c613388565b5b8152602001600282018054611441906143f4565b80601f016020809104026020016040519081016040528092919081815260200182805461146d906143f4565b80156114ba5780601f1061148f576101008083540402835291602001916114ba565b820191906000526020600020905b81548152906001019060200180831161149d57829003601f168201915b505050505081526020016003820160009054906101000a900473ffffffffffffffffffffffffffffffffffffffff1673ffffffffffffffffffffffffffffffffffffffff1673ffffffffffffffffffffffffffffffffffffffff1681526020016004820154815250508152602001906001019061138e565b505050509050919050565b6000600760008154809291906115529061437d565b9190505550600062015180836115689190614667565b426115739190614349565b90506000806000600754815260200190815260200160002090506007548160000181905550338160020160006101000a81548173ffffffffffffffffffffffffffffffffffffffff021916908373ffffffffffffffffffffffffffffffffffffffff160217905550858160010190816115ec9190614855565b508481600301819055506000816005018190555081816004018190555060018160060160006101000a81548160ff0219169083151502179055503373ffffffffffffffffffffffffffffffffffffffff166007547f0cdfb3a658687d23a53a68706b102e1411e655e318bcfb200af293ff2f2c52fc8760405161166f9190613225565b60405180910390a3600754925050509392505050565b6000670de0b6b3a7640000600a548361169e9190614667565b6116a89190614956565b9050919050565b600080600084815260200190815260200160002060070160008373ffffffffffffffffffffffffffffffffffffffff1673ffffffffffffffffffffffffffffffffffffffff16815260200190815260200160002054905092915050565b60016020528060005260406000206000915054906101000a900460ff1681565b60056020528060005260406000206000915054906101000a900460ff1681565b6000600660008154809291906117619061437d565b91905055506000611771846121ff565b905060405180610140016040528088815260200160065481526020018781526020013373ffffffffffffffffffffffffffffffffffffffff168152602001868152602001828152602001600060028111156117cf576117ce613388565b5b81526020018481526020014281526020016001151581525060036000600654815260200190815260200160002060008201518160000190816118119190614855565b50602082015181600101556040820151816002015560608201518160030160006101000a81548173ffffffffffffffffffffffffffffffffffffffff021916908373ffffffffffffffffffffffffffffffffffffffff16021790555060808201518160040190816118829190614855565b5060a0820151816005015560c08201518160060160006101000a81548160ff021916908360028111156118b8576118b7613388565b5b021790555060e08201518160070190805190602001906118d9929190612ff0565b5061010082015181600801556101208201518160090160006101000a81548160ff0219169083151502179055509050503373ffffffffffffffffffffffffffffffffffffffff166006547f899c32fbd27a24397979837f3acd7bfee4a37ee60b2d2f1a0643a725f39a7a498984604051611954929190614987565b60405180910390a360065491505095945050505050565b600360205280600052604060002060009150905080600001805461198e906143f4565b80601f01602080910402602001604051908101604052809291908181526020018280546119ba906143f4565b8015611a075780601f106119dc57610100808354040283529160200191611a07565b820191906000526020600020905b8154815290600101906020018083116119ea57829003601f168201915b5050505050908060010154908060020154908060030160009054906101000a900473ffffffffffffffffffffffffffffffffffffffff1690806004018054611a4e906143f4565b80601f0160208091040260200160405190810160405280929190818152602001828054611a7a906143f4565b8015611ac75780601f10611a9c57610100808354040283529160200191611ac7565b820191906000526020600020905b815481529060010190602001808311611aaa57829003601f168201915b5050505050908060050154908060060160009054906101000a900460ff16908060080154908060090160009054906101000a900460ff16905089565b600960009054906101000a900473ffffffffffffffffffffffffffffffffffffffff1681565b600960009054906101000a900473ffffffffffffffffffffffffffffffffffffffff1673ffffffffffffffffffffffffffffffffffffffff163373ffffffffffffffffffffffffffffffffffffffff1614611bb9576040517f08c379a0000000000000000000000000000000000000000000000000000000008152600401611bb0906131ec565b60405180910390fd5b600560008273ffffffffffffffffffffffffffffffffffffffff1673ffffffffffffffffffffffffffffffffffffffff16815260200190815260200160002060009054906101000a900460ff1615611c46576040517f08c379a0000000000000000000000000000000000000000000000000000000008152600401611c3d90614a03565b60405180910390fd5b6001600560008373ffffffffffffffffffffffffffffffffffffffff1673ffffffffffffffffffffffffffffffffffffffff16815260200190815260200160002060006101000a81548160ff0219169083151502179055508073ffffffffffffffffffffffffffffffffffffffff167f6d05492139c5ea989514a5d2150c028041e5c087e2a39967f67dc7d2655adb8160405160405180910390a250565b60008060046000848152602001908152602001600020805480602002602001604051908101604052809291908181526020016000905b82821015611ebe57838290600052602060002090600502016040518060c0016040529081600082015481526020016001820160009054906101000a900460ff166002811115611d6c57611d6b613388565b5b6002811115611d7e57611d7d613388565b5b81526020016001820160019054906101000a900460ff166002811115611da757611da6613388565b5b6002811115611db957611db8613388565b5b8152602001600282018054611dcd906143f4565b80601f0160208091040260200160405190810160405280929190818152602001828054611df9906143f4565b8015611e465780601f10611e1b57610100808354040283529160200191611e46565b820191906000526020600020905b815481529060010190602001808311611e2957829003601f168201915b505050505081526020016003820160009054906101000a900473ffffffffffffffffffffffffffffffffffffffff1673ffffffffffffffffffffffffffffffffffffffff1673ffffffffffffffffffffffffffffffffffffffff16815260200160048201548152505081526020019060010190611d1a565b505050509050611ecc613049565b60005b825181101561207f5760016002811115611eec57611eeb613388565b5b838281518110611eff57611efe614a23565b5b6020026020010151604001516002811115611f1d57611f1c613388565b5b036120725760006002811115611f3657611f35613388565b5b838281518110611f4957611f48614a23565b5b6020026020010151602001516002811115611f6757611f66613388565b5b03611f9257600182600060038110611f8257611f81614a23565b5b6020020190151590811515815250505b60016002811115611fa657611fa5613388565b5b838281518110611fb957611fb8614a23565b5b6020026020010151602001516002811115611fd757611fd6613388565b5b0361200257600182600160038110611ff257611ff1614a23565b5b6020020190151590811515815250505b60028081111561201557612014613388565b5b83828151811061202857612027614a23565b5b602002602001015160200151600281111561204657612045613388565b5b036120715760018260026003811061206157612060614a23565b5b6020020190151590811515815250505b5b8080600101915050611ecf565b508060006003811061209457612093614a23565b5b602002015180156120ba5750806001600381106120b4576120b3614a23565b5b60200201515b80156120db5750806002600381106120d5576120d4614a23565b5b60200201515b92505050919050565b6004602052816000526040600020818154811061210057600080fd5b9060005260206000209060050201600091509150508060000154908060010160009054906101000a900460ff16908060010160019054906101000a900460ff1690806002018054612150906143f4565b80601f016020809104026020016040519081016040528092919081815260200182805461217c906143f4565b80156121c95780601f1061219e576101008083540402835291602001916121c9565b820191906000526020600020905b8154815290600101906020018083116121ac57829003601f168201915b5050505050908060030160009054906101000a900473ffffffffffffffffffffffffffffffffffffffff16908060040154905086565b6000600a54670de0b6b3a7640000836122189190614667565b6122229190614956565b9050919050565b61223161306b565b6003600083815260200190815260200160002060090160009054906101000a900460ff16612294576040517f08c379a000000000000000000000000000000000000000000000000000000000815260040161228b906144dd565b60405180910390fd5b60036000838152602001908152602001600020604051806101400160405290816000820180546122c3906143f4565b80601f01602080910402602001604051908101604052809291908181526020018280546122ef906143f4565b801561233c5780601f106123115761010080835404028352916020019161233c565b820191906000526020600020905b81548152906001019060200180831161231f57829003601f168201915b5050505050815260200160018201548152602001600282015481526020016003820160009054906101000a900473ffffffffffffffffffffffffffffffffffffffff1673ffffffffffffffffffffffffffffffffffffffff1673ffffffffffffffffffffffffffffffffffffffff1681526020016004820180546123bf906143f4565b80601f01602080910402602001604051908101604052809291908181526020018280546123eb906143f4565b80156124385780601f1061240d57610100808354040283529160200191612438565b820191906000526020600020905b81548152906001019060200180831161241b57829003601f168201915b50505050508152602001600582015481526020016006820160009054906101000a900460ff1660028111156124705761246f613388565b5b600281111561248257612481613388565b5b815260200160078201805480602002602001604051908101604052809291908181526020016000905b828210156125575783829060005260206000200180546124ca906143f4565b80601f01602080910402602001604051908101604052809291908181526020018280546124f6906143f4565b80156125435780601f1061251857610100808354040283529160200191612543565b820191906000526020600020905b81548152906001019060200180831161252657829003601f168201915b5050505050815260200190600101906124ab565b505050508152602001600882015481526020016009820160009054906101000a900460ff1615151515815250509050919050565b6060600260008373ffffffffffffffffffffffffffffffffffffffff1673ffffffffffffffffffffffffffffffffffffffff168152602001908152602001600020805480602002602001604051908101604052809291908181526020016000905b8282101561272d57838290600052602060002090600702016040518060e001604052908160008201548152602001600182015481526020016002820160009054906101000a900473ffffffffffffffffffffffffffffffffffffffff1673ffffffffffffffffffffffffffffffffffffffff1673ffffffffffffffffffffffffffffffffffffffff1681526020016003820160009054906101000a900473ffffffffffffffffffffffffffffffffffffffff1673ffffffffffffffffffffffffffffffffffffffff1673ffffffffffffffffffffffffffffffffffffffff16815260200160048201548152602001600582015481526020016006820160009054906101000a900460ff16600181111561270857612707613388565b5b600181111561271a57612719613388565b5b81525050815260200190600101906125ec565b505050509050919050565b600960009054906101000a900473ffffffffffffffffffffffffffffffffffffffff1673ffffffffffffffffffffffffffffffffffffffff163373ffffffffffffffffffffffffffffffffffffffff16146127c8576040517f08c379a00000000000000000000000000000000000000000000000000000000081526004016127bf906131ec565b60405180910390fd5b600560008273ffffffffffffffffffffffffffffffffffffffff1673ffffffffffffffffffffffffffffffffffffffff16815260200190815260200160002060009054906101000a900460ff16612854576040517f08c379a000000000000000000000000000000000000000000000000000000000815260040161284b90614a9e565b60405180910390fd5b6000600560008373ffffffffffffffffffffffffffffffffffffffff1673ffffffffffffffffffffffffffffffffffffffff16815260200190815260200160002060006101000a81548160ff0219169083151502179055508073ffffffffffffffffffffffffffffffffffffffff167f44a3cd4eb5cc5748f6169df057b1cb2ae4c383e87cd94663c430e095d4cba42460405160405180910390a250565b600560003373ffffffffffffffffffffffffffffffffffffffff1673ffffffffffffffffffffffffffffffffffffffff16815260200190815260200160002060009054906101000a900460ff1661297e576040517f08c379a000000000000000000000000000000000000000000000000000000000815260040161297590614b30565b60405180910390fd5b6003600085815260200190815260200160002060090160009054906101000a900460ff166129e1576040517f08c379a00000000000000000000000000000000000000000000000000000000081526004016129d8906144dd565b60405180910390fd5b60006040518060c00160405280868152602001856002811115612a0757612a06613388565b5b8152602001846002811115612a1f57612a1e613388565b5b81526020018381526020013373ffffffffffffffffffffffffffffffffffffffff168152602001428152509050600460008681526020019081526020016000208190806001815401808255809150506001900390600052602060002090600502016000909190919091506000820151816000015560208201518160010160006101000a81548160ff02191690836002811115612abe57612abd613388565b5b021790555060408201518160010160016101000a81548160ff02191690836002811115612aee57612aed613388565b5b02179055506060820151816002019081612b089190614855565b5060808201518160030160006101000a81548173ffffffffffffffffffffffffffffffffffffffff021916908373ffffffffffffffffffffffffffffffffffffffff16021790555060a08201518160040155505060016002811115612b7057612b6f613388565b5b836002811115612b8357612b82613388565b5b148015612b955750612b9485611ce4565b5b15612bda5760016003600087815260200190815260200160002060060160006101000a81548160ff02191690836002811115612bd457612bd3613388565b5b02179055505b3373ffffffffffffffffffffffffffffffffffffffff16857f9315bbc6d13145d8fcc83e70fb6d0b24f68ca6902a4241e103d5021ab44650ef86604051612c219190614b50565b60405180910390a3600060405180606001604052806040518060400160405280600681526020017f4c6973746564000000000000000000000000000000000000000000000000000081525081526020016040518060400160405280600881526020017f566572696669656400000000000000000000000000000000000000000000000081525081526020016040518060400160405280600481526020017f536f6c64000000000000000000000000000000000000000000000000000000008152508152509050600060405180606001604052806040518060400160405280600881526020017f506c616e74696e6700000000000000000000000000000000000000000000000081525081526020016040518060400160405280600a81526020017f4d69642047726f7774680000000000000000000000000000000000000000000081525081526020016040518060400160405280600781526020017f48617276657374000000000000000000000000000000000000000000000000008152508152509050600060405180606001604052806040518060400160405280600781526020017f50656e64696e670000000000000000000000000000000000000000000000000081525081526020016040518060400160405280600881526020017f417070726f76656400000000000000000000000000000000000000000000000081525081526020016040518060400160405280600881526020017f52656a65637465640000000000000000000000000000000000000000000000008152508152509050877f2ce1561f0e0517a4d85b1a986c09194bd7f8e184b418f2beb87c614b466b71d384600360008c815260200190815260200160002060060160009054906101000a900460ff166002811115612ebc57612ebb613388565b5b60038110612ecd57612ecc614a23565b5b6020020151848a6002811115612ee657612ee5613388565b5b60038110612ef757612ef6614a23565b5b6020020151848a6002811115612f1057612f0f613388565b5b60038110612f2157612f20614a23565b5b6020020151604051612f3593929190614b6b565b60405180910390a25050505050505050565b600a5481565b6060600080838152602001908152602001600020600801805480602002602001604051908101604052809291908181526020018280548015612fe457602002820191906000526020600020905b8160009054906101000a900473ffffffffffffffffffffffffffffffffffffffff1673ffffffffffffffffffffffffffffffffffffffff1681526020019060010190808311612f9a575b50505050509050919050565b828054828255906000526020600020908101928215613038579160200282015b828111156130375782518290816130279190614855565b5091602001919060010190613010565b5b50905061304591906130e8565b5090565b6040518060600160405280600390602082028036833780820191505090505090565b604051806101400160405280606081526020016000815260200160008152602001600073ffffffffffffffffffffffffffffffffffffffff1681526020016060815260200160008152602001600060028111156130cb576130ca613388565b5b815260200160608152602001600081526020016000151581525090565b5b8082111561310857600081816130ff919061310c565b506001016130e9565b5090565b508054613118906143f4565b6000825580601f1061312a5750613149565b601f016020900490600052602060002090810190613148919061314c565b5b50565b5b8082111561316557600081600090555060010161314d565b5090565b600082825260208201905092915050565b7f4f6e6c79206f776e65722063616e2063616c6c20746869732066756e6374696f60008201527f6e00000000000000000000000000000000000000000000000000000000000000602082015250565b60006131d6602183613169565b91506131e18261317a565b604082019050919050565b60006020820190508181036000830152613205816131c9565b9050919050565b6000819050919050565b61321f8161320c565b82525050565b600060208201905061323a6000830184613216565b92915050565b6000604051905090565b600080fd5b600080fd5b61325d8161320c565b811461326857600080fd5b50565b60008135905061327a81613254565b92915050565b6000602082840312156132965761329561324a565b5b60006132a48482850161326b565b91505092915050565b600081519050919050565b60005b838110156132d65780820151818401526020810190506132bb565b60008484015250505050565b6000601f19601f8301169050919050565b60006132fe826132ad565b6133088185613169565b93506133188185602086016132b8565b613321816132e2565b840191505092915050565b600073ffffffffffffffffffffffffffffffffffffffff82169050919050565b60006133578261332c565b9050919050565b6133678161334c565b82525050565b60008115159050919050565b6133828161336d565b82525050565b7f4e487b7100000000000000000000000000000000000000000000000000000000600052602160045260246000fd5b600281106133c8576133c7613388565b5b50565b60008190506133d9826133b7565b919050565b60006133e9826133cb565b9050919050565b6133f9816133de565b82525050565b600061010082019050613415600083018b613216565b8181036020830152613427818a6132f3565b9050613436604083018961335e565b6134436060830188613216565b6134506080830187613216565b61345d60a0830186613216565b61346a60c0830185613379565b61347760e08301846133f0565b9998505050505050505050565b600081519050919050565b600082825260208201905092915050565b6000819050602082019050919050565b6134b98161320c565b82525050565b600381106134d0576134cf613388565b5b50565b60008190506134e1826134bf565b919050565b60006134f1826134d3565b9050919050565b613501816134e6565b82525050565b6003811061351857613517613388565b5b50565b600081905061352982613507565b919050565b60006135398261351b565b9050919050565b6135498161352e565b82525050565b600082825260208201905092915050565b600061356b826132ad565b613575818561354f565b93506135858185602086016132b8565b61358e816132e2565b840191505092915050565b6135a28161334c565b82525050565b600060c0830160008301516135c060008601826134b0565b5060208301516135d360208601826134f8565b5060408301516135e66040860182613540565b50606083015184820360608601526135fe8282613560565b91505060808301516136136080860182613599565b5060a083015161362660a08601826134b0565b508091505092915050565b600061363d83836135a8565b905092915050565b6000602082019050919050565b600061365d82613484565b613667818561348f565b935083602082028501613679856134a0565b8060005b858110156136b557848403895281516136968582613631565b94506136a183613645565b925060208a0199505060018101905061367d565b50829750879550505050505092915050565b600060208201905081810360008301526136e18184613652565b905092915050565b600080fd5b600080fd5b7f4e487b7100000000000000000000000000000000000000000000000000000000600052604160045260246000fd5b61372b826132e2565b810181811067ffffffffffffffff8211171561374a576137496136f3565b5b80604052505050565b600061375d613240565b90506137698282613722565b919050565b600067ffffffffffffffff821115613789576137886136f3565b5b613792826132e2565b9050602081019050919050565b82818337600083830152505050565b60006137c16137bc8461376e565b613753565b9050828152602081018484840111156137dd576137dc6136ee565b5b6137e884828561379f565b509392505050565b600082601f830112613805576138046136e9565b5b81356138158482602086016137ae565b91505092915050565b6000806000606084860312156138375761383661324a565b5b600084013567ffffffffffffffff8111156138555761385461324f565b5b613861868287016137f0565b93505060206138728682870161326b565b92505060406138838682870161326b565b9150509250925092565b6138968161334c565b81146138a157600080fd5b50565b6000813590506138b38161388d565b92915050565b600080604083850312156138d0576138cf61324a565b5b60006138de8582860161326b565b92505060206138ef858286016138a4565b9150509250929050565b60006020828403121561390f5761390e61324a565b5b600061391d848285016138a4565b91505092915050565b600060208201905061393b6000830184613379565b92915050565b600067ffffffffffffffff82111561395c5761395b6136f3565b5b602082029050602081019050919050565b600080fd5b600061398561398084613941565b613753565b905080838252602082019050602084028301858111156139a8576139a761396d565b5b835b818110156139ef57803567ffffffffffffffff8111156139cd576139cc6136e9565b5b8086016139da89826137f0565b855260208501945050506020810190506139aa565b5050509392505050565b600082601f830112613a0e57613a0d6136e9565b5b8135613a1e848260208601613972565b91505092915050565b600080600080600060a08688031215613a4357613a4261324a565b5b600086013567ffffffffffffffff811115613a6157613a6061324f565b5b613a6d888289016137f0565b9550506020613a7e8882890161326b565b945050604086013567ffffffffffffffff811115613a9f57613a9e61324f565b5b613aab888289016137f0565b9350506060613abc8882890161326b565b925050608086013567ffffffffffffffff811115613add57613adc61324f565b5b613ae9888289016139f9565b9150509295509295909350565b60038110613b0757613b06613388565b5b50565b6000819050613b1882613af6565b919050565b6000613b2882613b0a565b9050919050565b613b3881613b1d565b82525050565b6000610120820190508181036000830152613b59818c6132f3565b9050613b68602083018b613216565b613b75604083018a613216565b613b82606083018961335e565b8181036080830152613b9481886132f3565b9050613ba360a0830187613216565b613bb060c0830186613b2f565b613bbd60e0830185613216565b613bcb610100830184613379565b9a9950505050505050505050565b6000602082019050613bee600083018461335e565b92915050565b60008060408385031215613c0b57613c0a61324a565b5b6000613c198582860161326b565b9250506020613c2a8582860161326b565b9150509250929050565b613c3d816134e6565b82525050565b613c4c8161352e565b82525050565b600060c082019050613c676000830189613216565b613c746020830188613c34565b613c816040830187613c43565b8181036060830152613c9381866132f3565b9050613ca2608083018561335e565b613caf60a0830184613216565b979650505050505050565b613cc381613b1d565b82525050565b600081519050919050565b600082825260208201905092915050565b6000819050602082019050919050565b6000613d018383613560565b905092915050565b6000602082019050919050565b6000613d2182613cc9565b613d2b8185613cd4565b935083602082028501613d3d85613ce5565b8060005b85811015613d795784840389528151613d5a8582613cf5565b9450613d6583613d09565b925060208a01995050600181019050613d41565b50829750879550505050505092915050565b613d948161336d565b82525050565b6000610140830160008301518482036000860152613db88282613560565b9150506020830151613dcd60208601826134b0565b506040830151613de060408601826134b0565b506060830151613df36060860182613599565b5060808301518482036080860152613e0b8282613560565b91505060a0830151613e2060a08601826134b0565b5060c0830151613e3360c0860182613cba565b5060e083015184820360e0860152613e4b8282613d16565b915050610100830151613e626101008601826134b0565b50610120830151613e77610120860182613d8b565b508091505092915050565b60006020820190508181036000830152613e9c8184613d9a565b905092915050565b600081519050919050565b600082825260208201905092915050565b6000819050602082019050919050565b613ed9816133de565b82525050565b60e082016000820151613ef560008501826134b0565b506020820151613f0860208501826134b0565b506040820151613f1b6040850182613599565b506060820151613f2e6060850182613599565b506080820151613f4160808501826134b0565b5060a0820151613f5460a08501826134b0565b5060c0820151613f6760c0850182613ed0565b50505050565b6000613f798383613edf565b60e08301905092915050565b6000602082019050919050565b6000613f9d82613ea4565b613fa78185613eaf565b9350613fb283613ec0565b8060005b83811015613fe3578151613fca8882613f6d565b9750613fd583613f85565b925050600181019050613fb6565b5085935050505092915050565b6000602082019050818103600083015261400a8184613f92565b905092915050565b6003811061401f57600080fd5b50565b60008135905061403181614012565b92915050565b6003811061404457600080fd5b50565b60008135905061405681614037565b92915050565b600080600080608085870312156140765761407561324a565b5b60006140848782880161326b565b945050602061409587828801614022565b93505060406140a687828801614047565b925050606085013567ffffffffffffffff8111156140c7576140c661324f565b5b6140d3878288016137f0565b91505092959194509250565b600081519050919050565b600082825260208201905092915050565b6000819050602082019050919050565b60006141178383613599565b60208301905092915050565b6000602082019050919050565b600061413b826140df565b61414581856140ea565b9350614150836140fb565b8060005b83811015614181578151614168888261410b565b975061417383614123565b925050600181019050614154565b5085935050505092915050565b600060208201905081810360008301526141a88184614130565b905092915050565b7f43616d706169676e206973206e6f742061637469766500000000000000000000600082015250565b60006141e6601683613169565b91506141f1826141b0565b602082019050919050565b60006020820190508181036000830152614215816141d9565b9050919050565b7f43616d706169676e2068617320656e6465640000000000000000000000000000600082015250565b6000614252601283613169565b915061425d8261421c565b602082019050919050565b6000602082019050818103600083015261428181614245565b9050919050565b7f436f6e747269627574696f6e206d75737420626520677265617465722074686160008201527f6e20300000000000000000000000000000000000000000000000000000000000602082015250565b60006142e4602383613169565b91506142ef82614288565b604082019050919050565b60006020820190508181036000830152614313816142d7565b9050919050565b7f4e487b7100000000000000000000000000000000000000000000000000000000600052601160045260246000fd5b60006143548261320c565b915061435f8361320c565b92508282019050808211156143775761437661431a565b5b92915050565b60006143888261320c565b91507fffffffffffffffffffffffffffffffffffffffffffffffffffffffffffffffff82036143ba576143b961431a565b5b600182019050919050565b7f4e487b7100000000000000000000000000000000000000000000000000000000600052602260045260246000fd5b6000600282049050600182168061440c57607f821691505b60208210810361441f5761441e6143c5565b5b50919050565b7f496e76616c696420726174650000000000000000000000000000000000000000600082015250565b600061445b600c83613169565b915061446682614425565b602082019050919050565b6000602082019050818103600083015261448a8161444e565b9050919050565b7f50726f6475637420646f6573206e6f7420657869737400000000000000000000600082015250565b60006144c7601683613169565b91506144d282614491565b602082019050919050565b600060208201905081810360008301526144f6816144ba565b9050919050565b7f50726f64756374206973206e6f74207665726966696564000000000000000000600082015250565b6000614533601783613169565b915061453e826144fd565b602082019050919050565b6000602082019050818103600083015261456281614526565b9050919050565b7f496e737566666963656e74207061796d656e7400000000000000000000000000600082015250565b600061459f601383613169565b91506145aa82614569565b602082019050919050565b600060208201905081810360008301526145ce81614592565b9050919050565b7f4661726d65722063616e6e6f7420627579207468656972206f776e2070726f6460008201527f7563740000000000000000000000000000000000000000000000000000000000602082015250565b6000614631602383613169565b915061463c826145d5565b604082019050919050565b6000602082019050818103600083015261466081614624565b9050919050565b60006146728261320c565b915061467d8361320c565b925082820261468b8161320c565b915082820484148315176146a2576146a161431a565b5b5092915050565b60008190508160005260206000209050919050565b60006020601f8301049050919050565b600082821b905092915050565b60006008830261470b7fffffffffffffffffffffffffffffffffffffffffffffffffffffffffffffffff826146ce565b61471586836146ce565b95508019841693508086168417925050509392505050565b6000819050919050565b600061475261474d6147488461320c565b61472d565b61320c565b9050919050565b6000819050919050565b61476c83614737565b61478061477882614759565b8484546146db565b825550505050565b600090565b614795614788565b6147a0818484614763565b505050565b5b818110156147c4576147b960008261478d565b6001810190506147a6565b5050565b601f821115614809576147da816146a9565b6147e3846146be565b810160208510156147f2578190505b6148066147fe856146be565b8301826147a5565b50505b505050565b600082821c905092915050565b600061482c6000198460080261480e565b1980831691505092915050565b6000614845838361481b565b9150826002028217905092915050565b61485e826132ad565b67ffffffffffffffff811115614877576148766136f3565b5b61488182546143f4565b61488c8282856147c8565b600060209050601f8311600181146148bf57600084156148ad578287015190505b6148b78582614839565b86555061491f565b601f1984166148cd866146a9565b60005b828110156148f5578489015182556001820191506020850194506020810190506148d0565b86831015614912578489015161490e601f89168261481b565b8355505b6001600288020188555050505b505050505050565b7f4e487b7100000000000000000000000000000000000000000000000000000000600052601260045260246000fd5b60006149618261320c565b915061496c8361320c565b92508261497c5761497b614927565b5b828204905092915050565b600060408201905081810360008301526149a181856132f3565b90506149b06020830184613216565b9392505050565b7f566572696669657220616c726561647920457869737400000000000000000000600082015250565b60006149ed601683613169565b91506149f8826149b7565b602082019050919050565b60006020820190508181036000830152614a1c816149e0565b9050919050565b7f4e487b7100000000000000000000000000000000000000000000000000000000600052603260045260246000fd5b7f566572696669657220646f6573206e6f74206578697374000000000000000000600082015250565b6000614a88601783613169565b9150614a9382614a52565b602082019050919050565b60006020820190508181036000830152614ab781614a7b565b9050919050565b7f4f6e6c7920617574686f72697a6564207665726966696572732063616e20636160008201527f6c6c20746869732066756e6374696f6e00000000000000000000000000000000602082015250565b6000614b1a603083613169565b9150614b2582614abe565b604082019050919050565b60006020820190508181036000830152614b4981614b0d565b9050919050565b6000602082019050614b656000830184613c34565b92915050565b60006060820190508181036000830152614b8581866132f3565b90508181036020830152614b9981856132f3565b90508181036040830152614bad81846132f3565b905094935050505056fea2646970667358221220ae25193a5866d900f7b45dc81d584ce50b60c7bde2b10ee2c29dad728b6af10164736f6c634300081c0033",
  "linkReferences": {},
  "deployedLinkReferences": {}
}