{
  "_format": "hh-sol-artifact-1",
  "contractName": "FarmSupplyChain",
  "sourceName": "contracts/Agritrust.sol",
  "abi": [
    {
      "inputs": [],
      "stateMutability": "nonpayable",
      "type": "constructor"
    },
    {
      "anonymous": false,
      "inputs": [
        {
          "indexed": true,
          "internalType": "uint256",
          "name": "cid",
          "type": "uint256"
        },
        {
          "indexed": false,
          "internalType": "bool",
          "name": "active",
          "type": "bool"
        },
        {
          "indexed": false,
          "internalType": "uint256",
          "name": "raisedAmount",
          "type": "uint256"
        },
        {
          "indexed": false,
          "internalType": "uint256",
          "name": "goal",
          "type": "uint256"
        }
      ],
      "name": "CampaignStatusChanged",
      "type": "event"
    },
    {
      "anonymous": false,
      "inputs": [
        {
          "indexed": true,
          "internalType": "uint256",
          "name": "cid",
          "type": "uint256"
        },
        {
          "indexed": true,
          "internalType": "address",
          "name": "contributor",
          "type": "address"
        },
        {
          "indexed": false,
          "internalType": "uint256",
          "name": "amount",
          "type": "uint256"
        }
      ],
      "name": "CrowdfundingContribution",
      "type": "event"
    },
    {
      "anonymous": false,
      "inputs": [
        {
          "indexed": true,
          "internalType": "uint256",
          "name": "cid",
          "type": "uint256"
        },
        {
          "indexed": true,
          "internalType": "address",
          "name": "farmer",
          "type": "address"
        },
        {
          "indexed": false,
          "internalType": "uint256",
          "name": "goal",
          "type": "uint256"
        }
      ],
      "name": "CrowdfundingStarted",
      "type": "event"
    },
    {
      "anonymous": false,
      "inputs": [
        {
          "indexed": false,
          "internalType": "uint256",
          "name": "newRate",
          "type": "uint256"
        }
      ],
      "name": "EthToFcfaRateUpdated",
      "type": "event"
    },
    {
      "anonymous": false,
      "inputs": [
        {
          "indexed": true,
          "internalType": "uint256",
          "name": "pid",
          "type": "uint256"
        },
        {
          "indexed": true,
          "internalType": "address",
          "name": "farmer",
          "type": "address"
        },
        {
          "indexed": false,
          "internalType": "string",
          "name": "name",
          "type": "string"
        },
        {
          "indexed": false,
          "internalType": "uint256",
          "name": "price",
          "type": "uint256"
        }
      ],
      "name": "ProductListed",
      "type": "event"
    },
    {
      "anonymous": false,
      "inputs": [
        {
          "indexed": true,
          "internalType": "uint256",
          "name": "pid",
          "type": "uint256"
        },
        {
          "indexed": true,
          "internalType": "address",
          "name": "seller",
          "type": "address"
        },
        {
          "indexed": true,
          "internalType": "address",
          "name": "buyer",
          "type": "address"
        },
        {
          "indexed": false,
          "internalType": "uint256",
          "name": "amount",
          "type": "uint256"
        }
      ],
      "name": "ProductSold",
      "type": "event"
    },
    {
      "anonymous": false,
      "inputs": [
        {
          "indexed": true,
          "internalType": "uint256",
          "name": "pid",
          "type": "uint256"
        },
        {
          "indexed": false,
          "internalType": "string",
          "name": "status",
          "type": "string"
        },
        {
          "indexed": false,
          "internalType": "string",
          "name": "verificationStage",
          "type": "string"
        },
        {
          "indexed": false,
          "internalType": "string",
          "name": "verificationStatus",
          "type": "string"
        }
      ],
      "name": "ProductStatusUpdate",
      "type": "event"
    },
    {
      "anonymous": false,
      "inputs": [
        {
          "indexed": true,
          "internalType": "uint256",
          "name": "pid",
          "type": "uint256"
        },
        {
          "indexed": false,
          "internalType": "enum FarmSupplyChain.VerificationStage",
          "name": "stage",
          "type": "uint8"
        },
        {
          "indexed": true,
          "internalType": "address",
          "name": "verifier",
          "type": "address"
        }
      ],
      "name": "ProductVerified",
      "type": "event"
    },
    {
      "anonymous": false,
      "inputs": [
        {
          "indexed": true,
          "internalType": "address",
          "name": "verifier",
          "type": "address"
        }
      ],
      "name": "VerifierAdded",
      "type": "event"
    },
    {
      "anonymous": false,
      "inputs": [
        {
          "indexed": true,
          "internalType": "address",
          "name": "verifier",
          "type": "address"
        }
      ],
      "name": "VerifierRemoved",
      "type": "event"
    },
    {
      "anonymous": false,
      "inputs": [
        {
          "indexed": true,
          "internalType": "address",
          "name": "from",
          "type": "address"
        },
        {
          "indexed": false,
          "internalType": "uint256",
          "name": "value",
          "type": "uint256"
        }
      ],
      "name": "balance",
      "type": "event"
    },
    {
      "inputs": [
        {
          "internalType": "address",
          "name": "_verifier",
          "type": "address"
        }
      ],
      "name": "addVerifier",
      "outputs": [],
      "stateMutability": "nonpayable",
      "type": "function"
    },
    {
      "inputs": [
        {
          "internalType": "uint256",
          "name": "",
          "type": "uint256"
        }
      ],
      "name": "campaigns",
      "outputs": [
        {
          "internalType": "uint256",
          "name": "cid",
          "type": "uint256"
        },
        {
          "internalType": "string",
          "name": "description",
          "type": "string"
        },
        {
          "internalType": "address",
          "name": "farmer",
          "type": "address"
        },
        {
          "internalType": "uint256",
          "name": "goal",
          "type": "uint256"
        },
        {
          "internalType": "uint256",
          "name": "deadline",
          "type": "uint256"
        },
        {
          "internalType": "uint256",
          "name": "raisedAmount",
          "type": "uint256"
        },
        {
          "internalType": "bool",
          "name": "active",
          "type": "bool"
        },
        {
          "internalType": "enum FarmSupplyChain.TransactionType",
          "name": "transaction_type",
          "type": "uint8"
        }
      ],
      "stateMutability": "view",
      "type": "function"
    },
    {
      "inputs": [
        {
          "internalType": "uint256",
          "name": "_cid",
          "type": "uint256"
        }
      ],
      "name": "contributeToCampaign",
      "outputs": [],
      "stateMutability": "payable",
      "type": "function"
    },
    {
      "inputs": [],
      "name": "ethToFcfaRate",
      "outputs": [
        {
          "internalType": "uint256",
          "name": "",
          "type": "uint256"
        }
      ],
      "stateMutability": "view",
      "type": "function"
    },
    {
      "inputs": [
        {
          "internalType": "uint256",
          "name": "_fcfaAmount",
          "type": "uint256"
        }
      ],
      "name": "fcfaToWei",
      "outputs": [
        {
          "internalType": "uint256",
          "name": "",
          "type": "uint256"
        }
      ],
      "stateMutability": "view",
      "type": "function"
    },
    {
      "inputs": [
        {
          "internalType": "uint256",
          "name": "_cid",
          "type": "uint256"
        },
        {
          "internalType": "address",
          "name": "_contributor",
          "type": "address"
        }
      ],
      "name": "getCampaignContribution",
      "outputs": [
        {
          "internalType": "uint256",
          "name": "",
          "type": "uint256"
        }
      ],
      "stateMutability": "view",
      "type": "function"
    },
    {
      "inputs": [
        {
          "internalType": "uint256",
          "name": "_cid",
          "type": "uint256"
        }
      ],
      "name": "getCampaignStatus",
      "outputs": [
        {
          "internalType": "bool",
          "name": "active",
          "type": "bool"
        },
        {
          "internalType": "uint256",
          "name": "deadline",
          "type": "uint256"
        },
        {
          "internalType": "uint256",
          "name": "raisedAmount",
          "type": "uint256"
        },
        {
          "internalType": "uint256",
          "name": "goal",
          "type": "uint256"
        }
      ],
      "stateMutability": "view",
      "type": "function"
    },
    {
      "inputs": [
        {
          "internalType": "uint256",
          "name": "_cid",
          "type": "uint256"
        }
      ],
      "name": "getCampaignSupporters",
      "outputs": [
        {
          "internalType": "address[]",
          "name": "",
          "type": "address[]"
        }
      ],
      "stateMutability": "view",
      "type": "function"
    },
    {
      "inputs": [
        {
          "internalType": "address",
          "name": "_farmer",
          "type": "address"
        }
      ],
      "name": "getFarmerTransactions",
      "outputs": [
        {
          "components": [
            {
              "internalType": "uint256",
              "name": "tid",
              "type": "uint256"
            },
            {
              "internalType": "uint256",
              "name": "pid",
              "type": "uint256"
            },
            {
              "internalType": "address",
              "name": "from",
              "type": "address"
            },
            {
              "internalType": "address",
              "name": "to",
              "type": "address"
            },
            {
              "internalType": "uint256",
              "name": "amount",
              "type": "uint256"
            },
            {
              "internalType": "uint256",
              "name": "timestamp",
              "type": "uint256"
            },
            {
              "internalType": "enum FarmSupplyChain.TransactionType",
              "name": "transaction_type",
              "type": "uint8"
            }
          ],
          "internalType": "struct FarmSupplyChain.Transactions[]",
          "name": "",
          "type": "tuple[]"
        }
      ],
      "stateMutability": "view",
      "type": "function"
    },
    {
      "inputs": [
        {
          "internalType": "uint256",
          "name": "_pid",
          "type": "uint256"
        }
      ],
      "name": "getProduct",
      "outputs": [
        {
          "components": [
            {
              "internalType": "string",
              "name": "name",
              "type": "string"
            },
            {
              "internalType": "uint256",
              "name": "pid",
              "type": "uint256"
            },
            {
              "internalType": "uint256",
              "name": "qty",
              "type": "uint256"
            },
            {
              "internalType": "address",
              "name": "farmer",
              "type": "address"
            },
            {
              "internalType": "string",
              "name": "description",
              "type": "string"
            },
            {
              "internalType": "uint256",
              "name": "price",
              "type": "uint256"
            },
            {
              "internalType": "enum FarmSupplyChain.ProductStatus",
              "name": "status",
              "type": "uint8"
            },
            {
              "internalType": "string[]",
              "name": "farmingInputs",
              "type": "string[]"
            },
            {
              "internalType": "uint256",
              "name": "timestamp",
              "type": "uint256"
            },
            {
              "internalType": "bool",
              "name": "isListed",
              "type": "bool"
            }
          ],
          "internalType": "struct FarmSupplyChain.Products",
          "name": "",
          "type": "tuple"
        }
      ],
      "stateMutability": "view",
      "type": "function"
    },
    {
      "inputs": [
        {
          "internalType": "uint256",
          "name": "_pid",
          "type": "uint256"
        }
      ],
      "name": "getProductVerifications",
      "outputs": [
        {
          "components": [
            {
              "internalType": "uint256",
              "name": "pid",
              "type": "uint256"
            },
            {
              "internalType": "enum FarmSupplyChain.VerificationStage",
              "name": "stage",
              "type": "uint8"
            },
            {
              "internalType": "enum FarmSupplyChain.VerificationStatus",
              "name": "status",
              "type": "uint8"
            },
            {
              "internalType": "string",
              "name": "comments",
              "type": "string"
            },
            {
              "internalType": "address",
              "name": "verifier",
              "type": "address"
            },
            {
              "internalType": "uint256",
              "name": "timestamp",
              "type": "uint256"
            }
          ],
          "internalType": "struct FarmSupplyChain.Verification[]",
          "name": "",
          "type": "tuple[]"
        }
      ],
      "stateMutability": "view",
      "type": "function"
    },
    {
      "inputs": [
        {
          "internalType": "uint256",
          "name": "_pid",
          "type": "uint256"
        }
      ],
      "name": "isFullyVerified",
      "outputs": [
        {
          "internalType": "bool",
          "name": "",
          "type": "bool"
        }
      ],
      "stateMutability": "view",
      "type": "function"
    },
    {
      "inputs": [
        {
          "internalType": "string",
          "name": "_name",
          "type": "string"
        },
        {
          "internalType": "uint256",
          "name": "_qty",
          "type": "uint256"
        },
        {
          "internalType": "string",
          "name": "_description",
          "type": "string"
        },
        {
          "internalType": "uint256",
          "name": "_priceFcfa",
          "type": "uint256"
        },
        {
          "internalType": "string[]",
          "name": "_farmingInputs",
          "type": "string[]"
        }
      ],
      "name": "listProduct",
      "outputs": [
        {
          "internalType": "uint256",
          "name": "",
          "type": "uint256"
        }
      ],
      "stateMutability": "nonpayable",
      "type": "function"
    },
    {
      "inputs": [],
      "name": "owner",
      "outputs": [
        {
          "internalType": "address",
          "name": "",
          "type": "address"
        }
      ],
      "stateMutability": "view",
      "type": "function"
    },
    {
      "inputs": [
        {
          "internalType": "uint256",
          "name": "",
          "type": "uint256"
        },
        {
          "internalType": "uint256",
          "name": "",
          "type": "uint256"
        }
      ],
      "name": "productVerifications",
      "outputs": [
        {
          "internalType": "uint256",
          "name": "pid",
          "type": "uint256"
        },
        {
          "internalType": "enum FarmSupplyChain.VerificationStage",
          "name": "stage",
          "type": "uint8"
        },
        {
          "internalType": "enum FarmSupplyChain.VerificationStatus",
          "name": "status",
          "type": "uint8"
        },
        {
          "internalType": "string",
          "name": "comments",
          "type": "string"
        },
        {
          "internalType": "address",
          "name": "verifier",
          "type": "address"
        },
        {
          "internalType": "uint256",
          "name": "timestamp",
          "type": "uint256"
        }
      ],
      "stateMutability": "view",
      "type": "function"
    },
    {
      "inputs": [
        {
          "internalType": "uint256",
          "name": "",
          "type": "uint256"
        }
      ],
      "name": "products",
      "outputs": [
        {
          "internalType": "string",
          "name": "name",
          "type": "string"
        },
        {
          "internalType": "uint256",
          "name": "pid",
          "type": "uint256"
        },
        {
          "internalType": "uint256",
          "name": "qty",
          "type": "uint256"
        },
        {
          "internalType": "address",
          "name": "farmer",
          "type": "address"
        },
        {
          "internalType": "string",
          "name": "description",
          "type": "string"
        },
        {
          "internalType": "uint256",
          "name": "price",
          "type": "uint256"
        },
        {
          "internalType": "enum FarmSupplyChain.ProductStatus",
          "name": "status",
          "type": "uint8"
        },
        {
          "internalType": "uint256",
          "name": "timestamp",
          "type": "uint256"
        },
        {
          "internalType": "bool",
          "name": "isListed",
          "type": "bool"
        }
      ],
      "stateMutability": "view",
      "type": "function"
    },
    {
      "inputs": [
        {
          "internalType": "uint256",
          "name": "_pid",
          "type": "uint256"
        }
      ],
      "name": "purchaseProduct",
      "outputs": [],
      "stateMutability": "payable",
      "type": "function"
    },
    {
      "inputs": [
        {
          "internalType": "address",
          "name": "_verifier",
          "type": "address"
        }
      ],
      "name": "removeVerifier",
      "outputs": [],
      "stateMutability": "nonpayable",
      "type": "function"
    },
    {
      "inputs": [
        {
          "internalType": "string",
          "name": "_description",
          "type": "string"
        },
        {
          "internalType": "uint256",
          "name": "_goal",
          "type": "uint256"
        },
        {
          "internalType": "uint256",
          "name": "_durationInDays",
          "type": "uint256"
        }
      ],
      "name": "startCrowdfundingCampaign",
      "outputs": [
        {
          "internalType": "uint256",
          "name": "",
          "type": "uint256"
        }
      ],
      "stateMutability": "nonpayable",
      "type": "function"
    },
    {
      "inputs": [
        {
          "internalType": "address",
          "name": "",
          "type": "address"
        }
      ],
      "name": "supporters",
      "outputs": [
        {
          "internalType": "bool",
          "name": "",
          "type": "bool"
        }
      ],
      "stateMutability": "view",
      "type": "function"
    },
    {
      "inputs": [
        {
          "internalType": "uint256",
          "name": "_newRate",
          "type": "uint256"
        }
      ],
      "name": "updateEthToFcfaRate",
      "outputs": [],
      "stateMutability": "nonpayable",
      "type": "function"
    },
    {
      "inputs": [
        {
          "internalType": "address",
          "name": "",
          "type": "address"
        }
      ],
      "name": "verifiers",
      "outputs": [
        {
          "internalType": "bool",
          "name": "",
          "type": "bool"
        }
      ],
      "stateMutability": "view",
      "type": "function"
    },
    {
      "inputs": [
        {
          "internalType": "uint256",
          "name": "_pid",
          "type": "uint256"
        },
        {
          "internalType": "enum FarmSupplyChain.VerificationStage",
          "name": "_stage",
          "type": "uint8"
        },
        {
          "internalType": "enum FarmSupplyChain.VerificationStatus",
          "name": "_status",
          "type": "uint8"
        },
        {
          "internalType": "string",
          "name": "_comments",
          "type": "string"
        }
      ],
      "name": "verifyProducts",
      "outputs": [],
      "stateMutability": "nonpayable",
      "type": "function"
    },
    {
      "inputs": [
        {
          "internalType": "uint256",
          "name": "_weiAmount",
          "type": "uint256"
        }
      ],
      "name": "weiToFcfa",
      "outputs": [
        {
          "internalType": "uint256",
          "name": "",
          "type": "uint256"
        }
      ],
      "stateMutability": "view",
      "type": "function"
    },
    {
      "stateMutability": "payable",
      "type": "receive"
    }
  ],
  "bytecode": "0x6080604052348015600f57600080fd5b5060006006819055506000600781905550600060088190555033600960006101000a81548173ffffffffffffffffffffffffffffffffffffffff021916908373ffffffffffffffffffffffffffffffffffffffff160217905550623567e0600a81905550614f69806100826000396000f3fe60806040526004361061014f5760003560e01c80637acc0b20116100b6578063b9db15b41161006f578063b9db15b41461061e578063c0411ff41461065b578063ca2dfd0a14610698578063d48d7bcc146106c1578063d8cb37ac146106ea578063ea3e5bcf1461071557610234565b80637acc0b20146104c95780638da5cb5b1461050e5780639000b3d614610539578063a1cda5ba14610562578063b4767d891461059f578063b8ccbaf1146105e157610234565b80635af804ca116101085780635af804ca146103585780635cc8d9d614610395578063647c75e2146103d25780636c19e0041461040f5780636c8244871461044f578063747c1bd71461048c57610234565b80630b7ef89b14610239578063141961bc14610255578063315addb81461029957806338e76a03146102c25780634abe816b146102de57806357f13b5d1461031b57610234565b3661023457600960009054906101000a900473ffffffffffffffffffffffffffffffffffffffff1673ffffffffffffffffffffffffffffffffffffffff163373ffffffffffffffffffffffffffffffffffffffff16146101e4576040517f08c379a00000000000000000000000000000000000000000000000000000000081526004016101db90613414565b60405180910390fd5b3373ffffffffffffffffffffffffffffffffffffffff167f6d8c859a41b8f0898d2297713b26c17d13827e444abae7c4c094189145a248a53460405161022a919061344d565b60405180910390a2005b600080fd5b610253600480360381019061024e91906134a8565b610752565b005b34801561026157600080fd5b5061027c600480360381019061027791906134a8565b610e0d565b604051610290989796959493929190613627565b60405180910390f35b3480156102a557600080fd5b506102c060048036038101906102bb91906134a8565b610f17565b005b6102dc60048036038101906102d791906134a8565b61102b565b005b3480156102ea57600080fd5b50610305600480360381019061030091906134a8565b611534565b60405161031291906138ef565b60405180910390f35b34801561032757600080fd5b50610342600480360381019061033d9190613a46565b611718565b60405161034f919061344d565b60405180910390f35b34801561036457600080fd5b5061037f600480360381019061037a91906134a8565b611860565b60405161038c919061344d565b60405180910390f35b3480156103a157600080fd5b506103bc60048036038101906103b79190613ae1565b61188a565b6040516103c9919061344d565b60405180910390f35b3480156103de57600080fd5b506103f960048036038101906103f49190613b21565b6118e7565b6040516104069190613b4e565b60405180910390f35b34801561041b57600080fd5b50610436600480360381019061043191906134a8565b611907565b6040516104469493929190613b69565b60405180910390f35b34801561045b57600080fd5b5061047660048036038101906104719190613b21565b611954565b6040516104839190613b4e565b60405180910390f35b34801561049857600080fd5b506104b360048036038101906104ae9190613c94565b611974565b6040516104c0919061344d565b60405180910390f35b3480156104d557600080fd5b506104f060048036038101906104eb91906134a8565b611b93565b60405161050599989796959493929190613dab565b60405180910390f35b34801561051a57600080fd5b50610523611d2b565b6040516105309190613e46565b60405180910390f35b34801561054557600080fd5b50610560600480360381019061055b9190613b21565b611d51565b005b34801561056e57600080fd5b50610589600480360381019061058491906134a8565b611f0c565b6040516105969190613b4e565b60405180910390f35b3480156105ab57600080fd5b506105c660048036038101906105c19190613e61565b61230c565b6040516105d896959493929190613ebf565b60405180910390f35b3480156105ed57600080fd5b50610608600480360381019061060391906134a8565b612427565b604051610615919061344d565b60405180910390f35b34801561062a57600080fd5b50610645600480360381019061064091906134a8565b612451565b60405161065291906140ef565b60405180910390f35b34801561066757600080fd5b50610682600480360381019061067d9190613b21565b6127b3565b60405161068f919061425d565b60405180910390f35b3480156106a457600080fd5b506106bf60048036038101906106ba9190613b21565b612960565b005b3480156106cd57600080fd5b506106e860048036038101906106e391906142c9565b612b1a565b005b3480156106f657600080fd5b506106ff61316f565b60405161070c919061344d565b60405180910390f35b34801561072157600080fd5b5061073c600480360381019061073791906134a8565b613175565b60405161074991906143fb565b60405180910390f35b6000806000838152602001908152602001600020905060008211801561077a57506007548211155b6107b9576040517f08c379a00000000000000000000000000000000000000000000000000000000081526004016107b090614469565b60405180910390fd5b8060060160009054906101000a900460ff1661080a576040517f08c379a0000000000000000000000000000000000000000000000000000000008152600401610801906144d5565b60405180910390fd5b80600401544210610850576040517f08c379a000000000000000000000000000000000000000000000000000000000815260040161084790614541565b60405180910390fd5b60003411610893576040517f08c379a000000000000000000000000000000000000000000000000000000000815260040161088a906145d3565b60405180910390fd5b600073ffffffffffffffffffffffffffffffffffffffff168160020160009054906101000a900473ffffffffffffffffffffffffffffffffffffffff1673ffffffffffffffffffffffffffffffffffffffff1603610926576040517f08c379a000000000000000000000000000000000000000000000000000000000815260040161091d9061463f565b60405180910390fd5b60008160070160003373ffffffffffffffffffffffffffffffffffffffff1673ffffffffffffffffffffffffffffffffffffffff16815260200190815260200160002054036109d55780600801339080600181540180825580915050600190039060005260206000200160009091909190916101000a81548173ffffffffffffffffffffffffffffffffffffffff021916908373ffffffffffffffffffffffffffffffffffffffff1602179055505b348160070160003373ffffffffffffffffffffffffffffffffffffffff1673ffffffffffffffffffffffffffffffffffffffff1681526020019081526020016000206000828254610a26919061468e565b9250508190555034816005016000828254610a41919061468e565b9250508190555060086000815480929190610a5b906146c2565b919050555060006040518060e001604052806008548152602001600081526020013373ffffffffffffffffffffffffffffffffffffffff1681526020018360020160009054906101000a900473ffffffffffffffffffffffffffffffffffffffff1673ffffffffffffffffffffffffffffffffffffffff168152602001348152602001428152602001600180811115610af757610af66135b0565b5b8152509050600260008360020160009054906101000a900473ffffffffffffffffffffffffffffffffffffffff1673ffffffffffffffffffffffffffffffffffffffff1673ffffffffffffffffffffffffffffffffffffffff168152602001908152602001600020819080600181540180825580915050600190039060005260206000209060070201600090919091909150600082015181600001556020820151816001015560408201518160020160006101000a81548173ffffffffffffffffffffffffffffffffffffffff021916908373ffffffffffffffffffffffffffffffffffffffff16021790555060608201518160030160006101000a81548173ffffffffffffffffffffffffffffffffffffffff021916908373ffffffffffffffffffffffffffffffffffffffff1602179055506080820151816004015560a0820151816005015560c08201518160060160006101000a81548160ff02191690836001811115610c6a57610c696135b0565b5b021790555050503373ffffffffffffffffffffffffffffffffffffffff16837fcad6b6191651535d62239204c75c2eaed5102968edb40b152c95bbbf3d015dfd34604051610cb8919061344d565b60405180910390a38160030154826005015410610da55760008260060160006101000a81548160ff021916908315150217905550827f3268415a2bf2fe7ffb8b9d8281694ac2baedf07fbe6b727cac440f544ff8381b600084600501548560030154604051610d299392919061470a565b60405180910390a28160020160009054906101000a900473ffffffffffffffffffffffffffffffffffffffff1673ffffffffffffffffffffffffffffffffffffffff166108fc83600501549081150290604051600060405180830381858888f19350505050158015610d9f573d6000803e3d6000fd5b50610e08565b60018260060160006101000a81548160ff021916908315150217905550827f3268415a2bf2fe7ffb8b9d8281694ac2baedf07fbe6b727cac440f544ff8381b600184600501548560030154604051610dff9392919061470a565b60405180910390a25b505050565b6000602052806000526040600020600091509050806000015490806001018054610e3690614770565b80601f0160208091040260200160405190810160405280929190818152602001828054610e6290614770565b8015610eaf5780601f10610e8457610100808354040283529160200191610eaf565b820191906000526020600020905b815481529060010190602001808311610e9257829003601f168201915b5050505050908060020160009054906101000a900473ffffffffffffffffffffffffffffffffffffffff16908060030154908060040154908060050154908060060160009054906101000a900460ff16908060060160019054906101000a900460ff16905088565b600960009054906101000a900473ffffffffffffffffffffffffffffffffffffffff1673ffffffffffffffffffffffffffffffffffffffff163373ffffffffffffffffffffffffffffffffffffffff1614610fa7576040517f08c379a0000000000000000000000000000000000000000000000000000000008152600401610f9e90613414565b60405180910390fd5b60008111610fea576040517f08c379a0000000000000000000000000000000000000000000000000000000008152600401610fe1906147ed565b60405180910390fd5b80600a819055507f25761774644d2181e44037f016343f44410b2eb3002c7c26c88a98ee415a9a1a81604051611020919061344d565b60405180910390a150565b60006003600083815260200190815260200160002090508060090160009054906101000a900460ff16611093576040517f08c379a000000000000000000000000000000000000000000000000000000000815260040161108a90614859565b60405180910390fd5b600160028111156110a7576110a66135b0565b5b8160060160009054906101000a900460ff1660028111156110cb576110ca6135b0565b5b1461110b576040517f08c379a0000000000000000000000000000000000000000000000000000000008152600401611102906148c5565b60405180910390fd5b8060050154341015611152576040517f08c379a000000000000000000000000000000000000000000000000000000000815260040161114990614931565b60405180910390fd5b3373ffffffffffffffffffffffffffffffffffffffff168160030160009054906101000a900473ffffffffffffffffffffffffffffffffffffffff1673ffffffffffffffffffffffffffffffffffffffff16036111e4576040517f08c379a00000000000000000000000000000000000000000000000000000000081526004016111db906149c3565b60405180910390fd5b60028160060160006101000a81548160ff0219169083600281111561120c5761120b6135b0565b5b021790555060086000815480929190611224906146c2565b919050555060006040518060e0016040528060085481526020018481526020013373ffffffffffffffffffffffffffffffffffffffff1681526020018360030160009054906101000a900473ffffffffffffffffffffffffffffffffffffffff1673ffffffffffffffffffffffffffffffffffffffff168152602001348152602001428152602001600060018111156112c0576112bf6135b0565b5b8152509050600260008360030160009054906101000a900473ffffffffffffffffffffffffffffffffffffffff1673ffffffffffffffffffffffffffffffffffffffff1673ffffffffffffffffffffffffffffffffffffffff168152602001908152602001600020819080600181540180825580915050600190039060005260206000209060070201600090919091909150600082015181600001556020820151816001015560408201518160020160006101000a81548173ffffffffffffffffffffffffffffffffffffffff021916908373ffffffffffffffffffffffffffffffffffffffff16021790555060608201518160030160006101000a81548173ffffffffffffffffffffffffffffffffffffffff021916908373ffffffffffffffffffffffffffffffffffffffff1602179055506080820151816004015560a0820151816005015560c08201518160060160006101000a81548160ff02191690836001811115611433576114326135b0565b5b021790555050508160030160009054906101000a900473ffffffffffffffffffffffffffffffffffffffff1673ffffffffffffffffffffffffffffffffffffffff166108fc349081150290604051600060405180830381858888f193505050501580156114a4573d6000803e3d6000fd5b503373ffffffffffffffffffffffffffffffffffffffff168260030160009054906101000a900473ffffffffffffffffffffffffffffffffffffffff1673ffffffffffffffffffffffffffffffffffffffff16847fa02e46fc9bbd3e1138787bc1dc117ae0b9a5a3745ea30b0ab673d79d9073902934604051611527919061344d565b60405180910390a4505050565b606060046000838152602001908152602001600020805480602002602001604051908101604052809291908181526020016000905b8282101561170d57838290600052602060002090600502016040518060c0016040529081600082015481526020016001820160009054906101000a900460ff1660028111156115bb576115ba6135b0565b5b60028111156115cd576115cc6135b0565b5b81526020016001820160019054906101000a900460ff1660028111156115f6576115f56135b0565b5b6002811115611608576116076135b0565b5b815260200160028201805461161c90614770565b80601f016020809104026020016040519081016040528092919081815260200182805461164890614770565b80156116955780601f1061166a57610100808354040283529160200191611695565b820191906000526020600020905b81548152906001019060200180831161167857829003601f168201915b505050505081526020016003820160009054906101000a900473ffffffffffffffffffffffffffffffffffffffff1673ffffffffffffffffffffffffffffffffffffffff1673ffffffffffffffffffffffffffffffffffffffff16815260200160048201548152505081526020019060010190611569565b505050509050919050565b60006007600081548092919061172d906146c2565b91905055506000620151808361174391906149e3565b4261174e919061468e565b90506000806000600754815260200190815260200160002090506007548160000181905550338160020160006101000a81548173ffffffffffffffffffffffffffffffffffffffff021916908373ffffffffffffffffffffffffffffffffffffffff160217905550858160010190816117c79190614bd1565b508481600301819055506000816005018190555081816004018190555060018160060160006101000a81548160ff0219169083151502179055503373ffffffffffffffffffffffffffffffffffffffff166007547f0cdfb3a658687d23a53a68706b102e1411e655e318bcfb200af293ff2f2c52fc8760405161184a919061344d565b60405180910390a3600754925050509392505050565b6000670de0b6b3a7640000600a548361187991906149e3565b6118839190614cd2565b9050919050565b600080600084815260200190815260200160002060070160008373ffffffffffffffffffffffffffffffffffffffff1673ffffffffffffffffffffffffffffffffffffffff16815260200190815260200160002054905092915050565b60016020528060005260406000206000915054906101000a900460ff1681565b600080600080600080600087815260200190815260200160002090508060060160009054906101000a900460ff168160040154826005015483600301549450945094509450509193509193565b60056020528060005260406000206000915054906101000a900460ff1681565b600060066000815480929190611989906146c2565b9190505550600061199984612427565b905060405180610140016040528088815260200160065481526020018781526020013373ffffffffffffffffffffffffffffffffffffffff168152602001868152602001828152602001600060028111156119f7576119f66135b0565b5b8152602001848152602001428152602001600115158152506003600060065481526020019081526020016000206000820151816000019081611a399190614bd1565b50602082015181600101556040820151816002015560608201518160030160006101000a81548173ffffffffffffffffffffffffffffffffffffffff021916908373ffffffffffffffffffffffffffffffffffffffff1602179055506080820151816004019081611aaa9190614bd1565b5060a0820151816005015560c08201518160060160006101000a81548160ff02191690836002811115611ae057611adf6135b0565b5b021790555060e0820151816007019080519060200190611b01929190613218565b5061010082015181600801556101208201518160090160006101000a81548160ff0219169083151502179055509050503373ffffffffffffffffffffffffffffffffffffffff166006547f899c32fbd27a24397979837f3acd7bfee4a37ee60b2d2f1a0643a725f39a7a498984604051611b7c929190614d03565b60405180910390a360065491505095945050505050565b6003602052806000526040600020600091509050806000018054611bb690614770565b80601f0160208091040260200160405190810160405280929190818152602001828054611be290614770565b8015611c2f5780601f10611c0457610100808354040283529160200191611c2f565b820191906000526020600020905b815481529060010190602001808311611c1257829003601f168201915b5050505050908060010154908060020154908060030160009054906101000a900473ffffffffffffffffffffffffffffffffffffffff1690806004018054611c7690614770565b80601f0160208091040260200160405190810160405280929190818152602001828054611ca290614770565b8015611cef5780601f10611cc457610100808354040283529160200191611cef565b820191906000526020600020905b815481529060010190602001808311611cd257829003601f168201915b5050505050908060050154908060060160009054906101000a900460ff16908060080154908060090160009054906101000a900460ff16905089565b600960009054906101000a900473ffffffffffffffffffffffffffffffffffffffff1681565b600960009054906101000a900473ffffffffffffffffffffffffffffffffffffffff1673ffffffffffffffffffffffffffffffffffffffff163373ffffffffffffffffffffffffffffffffffffffff1614611de1576040517f08c379a0000000000000000000000000000000000000000000000000000000008152600401611dd890613414565b60405180910390fd5b600560008273ffffffffffffffffffffffffffffffffffffffff1673ffffffffffffffffffffffffffffffffffffffff16815260200190815260200160002060009054906101000a900460ff1615611e6e576040517f08c379a0000000000000000000000000000000000000000000000000000000008152600401611e6590614d7f565b60405180910390fd5b6001600560008373ffffffffffffffffffffffffffffffffffffffff1673ffffffffffffffffffffffffffffffffffffffff16815260200190815260200160002060006101000a81548160ff0219169083151502179055508073ffffffffffffffffffffffffffffffffffffffff167f6d05492139c5ea989514a5d2150c028041e5c087e2a39967f67dc7d2655adb8160405160405180910390a250565b60008060046000848152602001908152602001600020805480602002602001604051908101604052809291908181526020016000905b828210156120e657838290600052602060002090600502016040518060c0016040529081600082015481526020016001820160009054906101000a900460ff166002811115611f9457611f936135b0565b5b6002811115611fa657611fa56135b0565b5b81526020016001820160019054906101000a900460ff166002811115611fcf57611fce6135b0565b5b6002811115611fe157611fe06135b0565b5b8152602001600282018054611ff590614770565b80601f016020809104026020016040519081016040528092919081815260200182805461202190614770565b801561206e5780601f106120435761010080835404028352916020019161206e565b820191906000526020600020905b81548152906001019060200180831161205157829003601f168201915b505050505081526020016003820160009054906101000a900473ffffffffffffffffffffffffffffffffffffffff1673ffffffffffffffffffffffffffffffffffffffff1673ffffffffffffffffffffffffffffffffffffffff16815260200160048201548152505081526020019060010190611f42565b5050505090506120f4613271565b60005b82518110156122a75760016002811115612114576121136135b0565b5b83828151811061212757612126614d9f565b5b6020026020010151604001516002811115612145576121446135b0565b5b0361229a576000600281111561215e5761215d6135b0565b5b83828151811061217157612170614d9f565b5b602002602001015160200151600281111561218f5761218e6135b0565b5b036121ba576001826000600381106121aa576121a9614d9f565b5b6020020190151590811515815250505b600160028111156121ce576121cd6135b0565b5b8382815181106121e1576121e0614d9f565b5b60200260200101516020015160028111156121ff576121fe6135b0565b5b0361222a5760018260016003811061221a57612219614d9f565b5b6020020190151590811515815250505b60028081111561223d5761223c6135b0565b5b8382815181106122505761224f614d9f565b5b602002602001015160200151600281111561226e5761226d6135b0565b5b036122995760018260026003811061228957612288614d9f565b5b6020020190151590811515815250505b5b80806001019150506120f7565b50806000600381106122bc576122bb614d9f565b5b602002015180156122e25750806001600381106122dc576122db614d9f565b5b60200201515b80156123035750806002600381106122fd576122fc614d9f565b5b60200201515b92505050919050565b6004602052816000526040600020818154811061232857600080fd5b9060005260206000209060050201600091509150508060000154908060010160009054906101000a900460ff16908060010160019054906101000a900460ff169080600201805461237890614770565b80601f01602080910402602001604051908101604052809291908181526020018280546123a490614770565b80156123f15780601f106123c6576101008083540402835291602001916123f1565b820191906000526020600020905b8154815290600101906020018083116123d457829003601f168201915b5050505050908060030160009054906101000a900473ffffffffffffffffffffffffffffffffffffffff16908060040154905086565b6000600a54670de0b6b3a76400008361244091906149e3565b61244a9190614cd2565b9050919050565b612459613293565b6003600083815260200190815260200160002060090160009054906101000a900460ff166124bc576040517f08c379a00000000000000000000000000000000000000000000000000000000081526004016124b390614859565b60405180910390fd5b60036000838152602001908152602001600020604051806101400160405290816000820180546124eb90614770565b80601f016020809104026020016040519081016040528092919081815260200182805461251790614770565b80156125645780601f1061253957610100808354040283529160200191612564565b820191906000526020600020905b81548152906001019060200180831161254757829003601f168201915b5050505050815260200160018201548152602001600282015481526020016003820160009054906101000a900473ffffffffffffffffffffffffffffffffffffffff1673ffffffffffffffffffffffffffffffffffffffff1673ffffffffffffffffffffffffffffffffffffffff1681526020016004820180546125e790614770565b80601f016020809104026020016040519081016040528092919081815260200182805461261390614770565b80156126605780601f1061263557610100808354040283529160200191612660565b820191906000526020600020905b81548152906001019060200180831161264357829003601f168201915b50505050508152602001600582015481526020016006820160009054906101000a900460ff166002811115612698576126976135b0565b5b60028111156126aa576126a96135b0565b5b815260200160078201805480602002602001604051908101604052809291908181526020016000905b8282101561277f5783829060005260206000200180546126f290614770565b80601f016020809104026020016040519081016040528092919081815260200182805461271e90614770565b801561276b5780601f106127405761010080835404028352916020019161276b565b820191906000526020600020905b81548152906001019060200180831161274e57829003601f168201915b5050505050815260200190600101906126d3565b505050508152602001600882015481526020016009820160009054906101000a900460ff1615151515815250509050919050565b6060600260008373ffffffffffffffffffffffffffffffffffffffff1673ffffffffffffffffffffffffffffffffffffffff168152602001908152602001600020805480602002602001604051908101604052809291908181526020016000905b8282101561295557838290600052602060002090600702016040518060e001604052908160008201548152602001600182015481526020016002820160009054906101000a900473ffffffffffffffffffffffffffffffffffffffff1673ffffffffffffffffffffffffffffffffffffffff1673ffffffffffffffffffffffffffffffffffffffff1681526020016003820160009054906101000a900473ffffffffffffffffffffffffffffffffffffffff1673ffffffffffffffffffffffffffffffffffffffff1673ffffffffffffffffffffffffffffffffffffffff16815260200160048201548152602001600582015481526020016006820160009054906101000a900460ff1660018111156129305761292f6135b0565b5b6001811115612942576129416135b0565b5b8152505081526020019060010190612814565b505050509050919050565b600960009054906101000a900473ffffffffffffffffffffffffffffffffffffffff1673ffffffffffffffffffffffffffffffffffffffff163373ffffffffffffffffffffffffffffffffffffffff16146129f0576040517f08c379a00000000000000000000000000000000000000000000000000000000081526004016129e790613414565b60405180910390fd5b600560008273ffffffffffffffffffffffffffffffffffffffff1673ffffffffffffffffffffffffffffffffffffffff16815260200190815260200160002060009054906101000a900460ff16612a7c576040517f08c379a0000000000000000000000000000000000000000000000000000000008152600401612a7390614e1a565b60405180910390fd5b6000600560008373ffffffffffffffffffffffffffffffffffffffff1673ffffffffffffffffffffffffffffffffffffffff16815260200190815260200160002060006101000a81548160ff0219169083151502179055508073ffffffffffffffffffffffffffffffffffffffff167f44a3cd4eb5cc5748f6169df057b1cb2ae4c383e87cd94663c430e095d4cba42460405160405180910390a250565b600560003373ffffffffffffffffffffffffffffffffffffffff1673ffffffffffffffffffffffffffffffffffffffff16815260200190815260200160002060009054906101000a900460ff16612ba6576040517f08c379a0000000000000000000000000000000000000000000000000000000008152600401612b9d90614eac565b60405180910390fd5b6003600085815260200190815260200160002060090160009054906101000a900460ff16612c09576040517f08c379a0000000000000000000000000000000000000000000000000000000008152600401612c0090614859565b60405180910390fd5b60006040518060c00160405280868152602001856002811115612c2f57612c2e6135b0565b5b8152602001846002811115612c4757612c466135b0565b5b81526020018381526020013373ffffffffffffffffffffffffffffffffffffffff168152602001428152509050600460008681526020019081526020016000208190806001815401808255809150506001900390600052602060002090600502016000909190919091506000820151816000015560208201518160010160006101000a81548160ff02191690836002811115612ce657612ce56135b0565b5b021790555060408201518160010160016101000a81548160ff02191690836002811115612d1657612d156135b0565b5b02179055506060820151816002019081612d309190614bd1565b5060808201518160030160006101000a81548173ffffffffffffffffffffffffffffffffffffffff021916908373ffffffffffffffffffffffffffffffffffffffff16021790555060a08201518160040155505060016002811115612d9857612d976135b0565b5b836002811115612dab57612daa6135b0565b5b148015612dbd5750612dbc85611f0c565b5b15612e025760016003600087815260200190815260200160002060060160006101000a81548160ff02191690836002811115612dfc57612dfb6135b0565b5b02179055505b3373ffffffffffffffffffffffffffffffffffffffff16857f9315bbc6d13145d8fcc83e70fb6d0b24f68ca6902a4241e103d5021ab44650ef86604051612e499190614ecc565b60405180910390a3600060405180606001604052806040518060400160405280600681526020017f4c6973746564000000000000000000000000000000000000000000000000000081525081526020016040518060400160405280600881526020017f566572696669656400000000000000000000000000000000000000000000000081525081526020016040518060400160405280600481526020017f536f6c64000000000000000000000000000000000000000000000000000000008152508152509050600060405180606001604052806040518060400160405280600881526020017f506c616e74696e6700000000000000000000000000000000000000000000000081525081526020016040518060400160405280600a81526020017f4d69642047726f7774680000000000000000000000000000000000000000000081525081526020016040518060400160405280600781526020017f48617276657374000000000000000000000000000000000000000000000000008152508152509050600060405180606001604052806040518060400160405280600781526020017f50656e64696e670000000000000000000000000000000000000000000000000081525081526020016040518060400160405280600881526020017f417070726f76656400000000000000000000000000000000000000000000000081525081526020016040518060400160405280600881526020017f52656a65637465640000000000000000000000000000000000000000000000008152508152509050877f2ce1561f0e0517a4d85b1a986c09194bd7f8e184b418f2beb87c614b466b71d384600360008c815260200190815260200160002060060160009054906101000a900460ff1660028111156130e4576130e36135b0565b5b600381106130f5576130f4614d9f565b5b6020020151848a600281111561310e5761310d6135b0565b5b6003811061311f5761311e614d9f565b5b6020020151848a6002811115613138576131376135b0565b5b6003811061314957613148614d9f565b5b602002015160405161315d93929190614ee7565b60405180910390a25050505050505050565b600a5481565b606060008083815260200190815260200160002060080180548060200260200160405190810160405280929190818152602001828054801561320c57602002820191906000526020600020905b8160009054906101000a900473ffffffffffffffffffffffffffffffffffffffff1673ffffffffffffffffffffffffffffffffffffffff16815260200190600101908083116131c2575b50505050509050919050565b828054828255906000526020600020908101928215613260579160200282015b8281111561325f57825182908161324f9190614bd1565b5091602001919060010190613238565b5b50905061326d9190613310565b5090565b6040518060600160405280600390602082028036833780820191505090505090565b604051806101400160405280606081526020016000815260200160008152602001600073ffffffffffffffffffffffffffffffffffffffff1681526020016060815260200160008152602001600060028111156132f3576132f26135b0565b5b815260200160608152602001600081526020016000151581525090565b5b8082111561333057600081816133279190613334565b50600101613311565b5090565b50805461334090614770565b6000825580601f106133525750613371565b601f0160209004906000526020600020908101906133709190613374565b5b50565b5b8082111561338d576000816000905550600101613375565b5090565b600082825260208201905092915050565b7f4f6e6c79206f776e65722063616e2063616c6c20746869732066756e6374696f60008201527f6e00000000000000000000000000000000000000000000000000000000000000602082015250565b60006133fe602183613391565b9150613409826133a2565b604082019050919050565b6000602082019050818103600083015261342d816133f1565b9050919050565b6000819050919050565b61344781613434565b82525050565b6000602082019050613462600083018461343e565b92915050565b6000604051905090565b600080fd5b600080fd5b61348581613434565b811461349057600080fd5b50565b6000813590506134a28161347c565b92915050565b6000602082840312156134be576134bd613472565b5b60006134cc84828501613493565b91505092915050565b600081519050919050565b60005b838110156134fe5780820151818401526020810190506134e3565b60008484015250505050565b6000601f19601f8301169050919050565b6000613526826134d5565b6135308185613391565b93506135408185602086016134e0565b6135498161350a565b840191505092915050565b600073ffffffffffffffffffffffffffffffffffffffff82169050919050565b600061357f82613554565b9050919050565b61358f81613574565b82525050565b60008115159050919050565b6135aa81613595565b82525050565b7f4e487b7100000000000000000000000000000000000000000000000000000000600052602160045260246000fd5b600281106135f0576135ef6135b0565b5b50565b6000819050613601826135df565b919050565b6000613611826135f3565b9050919050565b61362181613606565b82525050565b60006101008201905061363d600083018b61343e565b818103602083015261364f818a61351b565b905061365e6040830189613586565b61366b606083018861343e565b613678608083018761343e565b61368560a083018661343e565b61369260c08301856135a1565b61369f60e0830184613618565b9998505050505050505050565b600081519050919050565b600082825260208201905092915050565b6000819050602082019050919050565b6136e181613434565b82525050565b600381106136f8576136f76135b0565b5b50565b6000819050613709826136e7565b919050565b6000613719826136fb565b9050919050565b6137298161370e565b82525050565b600381106137405761373f6135b0565b5b50565b60008190506137518261372f565b919050565b600061376182613743565b9050919050565b61377181613756565b82525050565b600082825260208201905092915050565b6000613793826134d5565b61379d8185613777565b93506137ad8185602086016134e0565b6137b68161350a565b840191505092915050565b6137ca81613574565b82525050565b600060c0830160008301516137e860008601826136d8565b5060208301516137fb6020860182613720565b50604083015161380e6040860182613768565b50606083015184820360608601526138268282613788565b915050608083015161383b60808601826137c1565b5060a083015161384e60a08601826136d8565b508091505092915050565b600061386583836137d0565b905092915050565b6000602082019050919050565b6000613885826136ac565b61388f81856136b7565b9350836020820285016138a1856136c8565b8060005b858110156138dd57848403895281516138be8582613859565b94506138c98361386d565b925060208a019950506001810190506138a5565b50829750879550505050505092915050565b60006020820190508181036000830152613909818461387a565b905092915050565b600080fd5b600080fd5b7f4e487b7100000000000000000000000000000000000000000000000000000000600052604160045260246000fd5b6139538261350a565b810181811067ffffffffffffffff821117156139725761397161391b565b5b80604052505050565b6000613985613468565b9050613991828261394a565b919050565b600067ffffffffffffffff8211156139b1576139b061391b565b5b6139ba8261350a565b9050602081019050919050565b82818337600083830152505050565b60006139e96139e484613996565b61397b565b905082815260208101848484011115613a0557613a04613916565b5b613a108482856139c7565b509392505050565b600082601f830112613a2d57613a2c613911565b5b8135613a3d8482602086016139d6565b91505092915050565b600080600060608486031215613a5f57613a5e613472565b5b600084013567ffffffffffffffff811115613a7d57613a7c613477565b5b613a8986828701613a18565b9350506020613a9a86828701613493565b9250506040613aab86828701613493565b9150509250925092565b613abe81613574565b8114613ac957600080fd5b50565b600081359050613adb81613ab5565b92915050565b60008060408385031215613af857613af7613472565b5b6000613b0685828601613493565b9250506020613b1785828601613acc565b9150509250929050565b600060208284031215613b3757613b36613472565b5b6000613b4584828501613acc565b91505092915050565b6000602082019050613b6360008301846135a1565b92915050565b6000608082019050613b7e60008301876135a1565b613b8b602083018661343e565b613b98604083018561343e565b613ba5606083018461343e565b95945050505050565b600067ffffffffffffffff821115613bc957613bc861391b565b5b602082029050602081019050919050565b600080fd5b6000613bf2613bed84613bae565b61397b565b90508083825260208201905060208402830185811115613c1557613c14613bda565b5b835b81811015613c5c57803567ffffffffffffffff811115613c3a57613c39613911565b5b808601613c478982613a18565b85526020850194505050602081019050613c17565b5050509392505050565b600082601f830112613c7b57613c7a613911565b5b8135613c8b848260208601613bdf565b91505092915050565b600080600080600060a08688031215613cb057613caf613472565b5b600086013567ffffffffffffffff811115613cce57613ccd613477565b5b613cda88828901613a18565b9550506020613ceb88828901613493565b945050604086013567ffffffffffffffff811115613d0c57613d0b613477565b5b613d1888828901613a18565b9350506060613d2988828901613493565b925050608086013567ffffffffffffffff811115613d4a57613d49613477565b5b613d5688828901613c66565b9150509295509295909350565b60038110613d7457613d736135b0565b5b50565b6000819050613d8582613d63565b919050565b6000613d9582613d77565b9050919050565b613da581613d8a565b82525050565b6000610120820190508181036000830152613dc6818c61351b565b9050613dd5602083018b61343e565b613de2604083018a61343e565b613def6060830189613586565b8181036080830152613e01818861351b565b9050613e1060a083018761343e565b613e1d60c0830186613d9c565b613e2a60e083018561343e565b613e386101008301846135a1565b9a9950505050505050505050565b6000602082019050613e5b6000830184613586565b92915050565b60008060408385031215613e7857613e77613472565b5b6000613e8685828601613493565b9250506020613e9785828601613493565b9150509250929050565b613eaa8161370e565b82525050565b613eb981613756565b82525050565b600060c082019050613ed4600083018961343e565b613ee16020830188613ea1565b613eee6040830187613eb0565b8181036060830152613f00818661351b565b9050613f0f6080830185613586565b613f1c60a083018461343e565b979650505050505050565b613f3081613d8a565b82525050565b600081519050919050565b600082825260208201905092915050565b6000819050602082019050919050565b6000613f6e8383613788565b905092915050565b6000602082019050919050565b6000613f8e82613f36565b613f988185613f41565b935083602082028501613faa85613f52565b8060005b85811015613fe65784840389528151613fc78582613f62565b9450613fd283613f76565b925060208a01995050600181019050613fae565b50829750879550505050505092915050565b61400181613595565b82525050565b60006101408301600083015184820360008601526140258282613788565b915050602083015161403a60208601826136d8565b50604083015161404d60408601826136d8565b50606083015161406060608601826137c1565b50608083015184820360808601526140788282613788565b91505060a083015161408d60a08601826136d8565b5060c08301516140a060c0860182613f27565b5060e083015184820360e08601526140b88282613f83565b9150506101008301516140cf6101008601826136d8565b506101208301516140e4610120860182613ff8565b508091505092915050565b600060208201905081810360008301526141098184614007565b905092915050565b600081519050919050565b600082825260208201905092915050565b6000819050602082019050919050565b61414681613606565b82525050565b60e08201600082015161416260008501826136d8565b50602082015161417560208501826136d8565b50604082015161418860408501826137c1565b50606082015161419b60608501826137c1565b5060808201516141ae60808501826136d8565b5060a08201516141c160a08501826136d8565b5060c08201516141d460c085018261413d565b50505050565b60006141e6838361414c565b60e08301905092915050565b6000602082019050919050565b600061420a82614111565b614214818561411c565b935061421f8361412d565b8060005b8381101561425057815161423788826141da565b9750614242836141f2565b925050600181019050614223565b5085935050505092915050565b6000602082019050818103600083015261427781846141ff565b905092915050565b6003811061428c57600080fd5b50565b60008135905061429e8161427f565b92915050565b600381106142b157600080fd5b50565b6000813590506142c3816142a4565b92915050565b600080600080608085870312156142e3576142e2613472565b5b60006142f187828801613493565b94505060206143028782880161428f565b9350506040614313878288016142b4565b925050606085013567ffffffffffffffff81111561433457614333613477565b5b61434087828801613a18565b91505092959194509250565b600081519050919050565b600082825260208201905092915050565b6000819050602082019050919050565b600061438483836137c1565b60208301905092915050565b6000602082019050919050565b60006143a88261434c565b6143b28185614357565b93506143bd83614368565b8060005b838110156143ee5781516143d58882614378565b97506143e083614390565b9250506001810190506143c1565b5085935050505092915050565b60006020820190508181036000830152614415818461439d565b905092915050565b7f496e76616c69642063616d706169676e20494400000000000000000000000000600082015250565b6000614453601383613391565b915061445e8261441d565b602082019050919050565b6000602082019050818103600083015261448281614446565b9050919050565b7f43616d706169676e206973206e6f742061637469766500000000000000000000600082015250565b60006144bf601683613391565b91506144ca82614489565b602082019050919050565b600060208201905081810360008301526144ee816144b2565b9050919050565b7f43616d706169676e2068617320656e6465640000000000000000000000000000600082015250565b600061452b601283613391565b9150614536826144f5565b602082019050919050565b6000602082019050818103600083015261455a8161451e565b9050919050565b7f436f6e747269627574696f6e206d75737420626520677265617465722074686160008201527f6e20300000000000000000000000000000000000000000000000000000000000602082015250565b60006145bd602383613391565b91506145c882614561565b604082019050919050565b600060208201905081810360008301526145ec816145b0565b9050919050565b7f43616d706169676e20646f6573206e6f74206578697374000000000000000000600082015250565b6000614629601783613391565b9150614634826145f3565b602082019050919050565b600060208201905081810360008301526146588161461c565b9050919050565b7f4e487b7100000000000000000000000000000000000000000000000000000000600052601160045260246000fd5b600061469982613434565b91506146a483613434565b92508282019050808211156146bc576146bb61465f565b5b92915050565b60006146cd82613434565b91507fffffffffffffffffffffffffffffffffffffffffffffffffffffffffffffffff82036146ff576146fe61465f565b5b600182019050919050565b600060608201905061471f60008301866135a1565b61472c602083018561343e565b614739604083018461343e565b949350505050565b7f4e487b7100000000000000000000000000000000000000000000000000000000600052602260045260246000fd5b6000600282049050600182168061478857607f821691505b60208210810361479b5761479a614741565b5b50919050565b7f496e76616c696420726174650000000000000000000000000000000000000000600082015250565b60006147d7600c83613391565b91506147e2826147a1565b602082019050919050565b60006020820190508181036000830152614806816147ca565b9050919050565b7f50726f6475637420646f6573206e6f7420657869737400000000000000000000600082015250565b6000614843601683613391565b915061484e8261480d565b602082019050919050565b6000602082019050818103600083015261487281614836565b9050919050565b7f50726f64756374206973206e6f74207665726966696564000000000000000000600082015250565b60006148af601783613391565b91506148ba82614879565b602082019050919050565b600060208201905081810360008301526148de816148a2565b9050919050565b7f496e737566666963656e74207061796d656e7400000000000000000000000000600082015250565b600061491b601383613391565b9150614926826148e5565b602082019050919050565b6000602082019050818103600083015261494a8161490e565b9050919050565b7f4661726d65722063616e6e6f7420627579207468656972206f776e2070726f6460008201527f7563740000000000000000000000000000000000000000000000000000000000602082015250565b60006149ad602383613391565b91506149b882614951565b604082019050919050565b600060208201905081810360008301526149dc816149a0565b9050919050565b60006149ee82613434565b91506149f983613434565b9250828202614a0781613434565b91508282048414831517614a1e57614a1d61465f565b5b5092915050565b60008190508160005260206000209050919050565b60006020601f8301049050919050565b600082821b905092915050565b600060088302614a877fffffffffffffffffffffffffffffffffffffffffffffffffffffffffffffffff82614a4a565b614a918683614a4a565b95508019841693508086168417925050509392505050565b6000819050919050565b6000614ace614ac9614ac484613434565b614aa9565b613434565b9050919050565b6000819050919050565b614ae883614ab3565b614afc614af482614ad5565b848454614a57565b825550505050565b600090565b614b11614b04565b614b1c818484614adf565b505050565b5b81811015614b4057614b35600082614b09565b600181019050614b22565b5050565b601f821115614b8557614b5681614a25565b614b5f84614a3a565b81016020851015614b6e578190505b614b82614b7a85614a3a565b830182614b21565b50505b505050565b600082821c905092915050565b6000614ba860001984600802614b8a565b1980831691505092915050565b6000614bc18383614b97565b9150826002028217905092915050565b614bda826134d5565b67ffffffffffffffff811115614bf357614bf261391b565b5b614bfd8254614770565b614c08828285614b44565b600060209050601f831160018114614c3b5760008415614c29578287015190505b614c338582614bb5565b865550614c9b565b601f198416614c4986614a25565b60005b82811015614c7157848901518255600182019150602085019450602081019050614c4c565b86831015614c8e5784890151614c8a601f891682614b97565b8355505b6001600288020188555050505b505050505050565b7f4e487b7100000000000000000000000000000000000000000000000000000000600052601260045260246000fd5b6000614cdd82613434565b9150614ce883613434565b925082614cf857614cf7614ca3565b5b828204905092915050565b60006040820190508181036000830152614d1d818561351b565b9050614d2c602083018461343e565b9392505050565b7f566572696669657220616c726561647920457869737400000000000000000000600082015250565b6000614d69601683613391565b9150614d7482614d33565b602082019050919050565b60006020820190508181036000830152614d9881614d5c565b9050919050565b7f4e487b7100000000000000000000000000000000000000000000000000000000600052603260045260246000fd5b7f566572696669657220646f6573206e6f74206578697374000000000000000000600082015250565b6000614e04601783613391565b9150614e0f82614dce565b602082019050919050565b60006020820190508181036000830152614e3381614df7565b9050919050565b7f4f6e6c7920617574686f72697a6564207665726966696572732063616e20636160008201527f6c6c20746869732066756e6374696f6e00000000000000000000000000000000602082015250565b6000614e96603083613391565b9150614ea182614e3a565b604082019050919050565b60006020820190508181036000830152614ec581614e89565b9050919050565b6000602082019050614ee16000830184613ea1565b92915050565b60006060820190508181036000830152614f01818661351b565b90508181036020830152614f15818561351b565b90508181036040830152614f29818461351b565b905094935050505056fea26469706673582212200ce5ea1e735168aed7bc9f07d81fd643657912068489c6cec1d5310562f3f9e664736f6c634300081c0033",
  "linkReferences": {},
  "deployedLinkReferences": {}
}